{
  "contractName": "FileRegistry",
  "abi": [
    {
      "constant": true,
      "inputs": [],
      "name": "Name",
      "outputs": [
        {
          "name": "",
          "type": "string"
        }
      ],
      "payable": false,
      "stateMutability": "view",
      "type": "function"
    },
    {
      "constant": true,
      "inputs": [],
      "name": "Description",
      "outputs": [
        {
          "name": "",
          "type": "string"
        }
      ],
      "payable": false,
      "stateMutability": "view",
      "type": "function"
    },
    {
      "constant": true,
      "inputs": [],
      "name": "State",
      "outputs": [
        {
          "name": "",
          "type": "uint8"
        }
      ],
      "payable": false,
      "stateMutability": "view",
      "type": "function"
    },
    {
      "inputs": [
        {
          "name": "name",
          "type": "string"
        },
        {
          "name": "description",
          "type": "string"
        }
      ],
      "payable": false,
      "stateMutability": "nonpayable",
      "type": "constructor"
    },
    {
      "constant": false,
      "inputs": [],
      "name": "CloseRegistry",
      "outputs": [],
      "payable": false,
      "stateMutability": "nonpayable",
      "type": "function"
    },
    {
      "constant": false,
      "inputs": [
        {
          "name": "FileContractAddress",
          "type": "address"
        },
        {
          "name": "FileId",
          "type": "string"
        }
      ],
      "name": "RegisterFile",
      "outputs": [],
      "payable": false,
      "stateMutability": "nonpayable",
      "type": "function"
    },
    {
      "constant": true,
      "inputs": [
        {
          "name": "FileId",
          "type": "string"
        }
      ],
      "name": "IsRegisteredFileId",
      "outputs": [
        {
          "name": "isRegistered",
          "type": "bool"
        }
      ],
      "payable": false,
      "stateMutability": "view",
      "type": "function"
    },
    {
      "constant": true,
      "inputs": [
        {
          "name": "index",
          "type": "uint256"
        }
      ],
      "name": "GetFileIdAtIndex",
      "outputs": [
        {
          "name": "",
          "type": "string"
        }
      ],
      "payable": false,
      "stateMutability": "view",
      "type": "function"
    },
    {
      "constant": true,
      "inputs": [
        {
          "name": "index",
          "type": "uint256"
        }
      ],
      "name": "GetFileAddressAtIndex",
      "outputs": [
        {
          "name": "",
          "type": "address"
        }
      ],
      "payable": false,
      "stateMutability": "view",
      "type": "function"
    },
    {
      "constant": true,
      "inputs": [],
      "name": "GetNumberOfFiles",
      "outputs": [
        {
          "name": "",
          "type": "uint256"
        }
      ],
      "payable": false,
      "stateMutability": "view",
      "type": "function"
    },
    {
      "constant": true,
      "inputs": [],
      "name": "GetAddress",
      "outputs": [
        {
          "name": "",
          "type": "address"
        }
      ],
      "payable": false,
      "stateMutability": "view",
      "type": "function"
    },
    {
      "constant": true,
      "inputs": [],
      "name": "IsOpen",
      "outputs": [
        {
          "name": "",
          "type": "bool"
        }
      ],
      "payable": false,
      "stateMutability": "view",
      "type": "function"
    },
    {
      "constant": true,
      "inputs": [
        {
          "name": "fileid",
          "type": "string"
        }
      ],
      "name": "GetFileAddressGivenId",
      "outputs": [
        {
          "name": "",
          "type": "address"
        }
      ],
      "payable": false,
      "stateMutability": "view",
      "type": "function"
    }
  ],
  "bytecode": "0x60806040523480156200001157600080fd5b50604051620011773803806200117783398101806040528101908080518201929190602001805182019291905050508160019080519060200190620000589291906200009e565b508060029080519060200190620000719291906200009e565b5060008060006101000a81548160ff021916908360018111156200009157fe5b021790555050506200014d565b828054600181600116156101000203166002900490600052602060002090601f016020900481019282601f10620000e157805160ff191683800117855562000112565b8280016001018555821562000112579182015b8281111562000111578251825591602001919060010190620000f4565b5b50905062000121919062000125565b5090565b6200014a91905b80821115620001465760008160009055506001016200012c565b5090565b90565b61101a806200015d6000396000f3006080604052600436106100ba576000357c0100000000000000000000000000000000000000000000000000000000900463ffffffff16806313027c96146100bf5780631b342b1b1461013a57806329d99ba1146101655780632aa01069146101c0578063346de76d146102665780633accf278146102b957806379fa2103146103265780638052474d146103555780638191745f146103e55780638220dd2114610475578063f10952221461048c578063f1b6dccd146104e3575b600080fd5b3480156100cb57600080fd5b506100f860048036038101908080359060200190820180359060200191909192939192939050505061051c565b604051808273ffffffffffffffffffffffffffffffffffffffff1673ffffffffffffffffffffffffffffffffffffffff16815260200191505060405180910390f35b34801561014657600080fd5b5061014f61056f565b6040518082815260200191505060405180910390f35b34801561017157600080fd5b506101be600480360381019080803573ffffffffffffffffffffffffffffffffffffffff16906020019092919080359060200190820180359060200191909192939192939050505061057c565b005b3480156101cc57600080fd5b506101eb60048036038101908080359060200190929190505050610977565b6040518080602001828103825283818151815260200191508051906020019080838360005b8381101561022b578082015181840152602081019050610210565b50505050905090810190601f1680156102585780820380516001836020036101000a031916815260200191505b509250505060405180910390f35b34801561027257600080fd5b5061029f600480360381019080803590602001908201803590602001919091929391929390505050610a32565b604051808215151515815260200191505060405180910390f35b3480156102c557600080fd5b506102e460048036038101908080359060200190929190505050610bba565b604051808273ffffffffffffffffffffffffffffffffffffffff1673ffffffffffffffffffffffffffffffffffffffff16815260200191505060405180910390f35b34801561033257600080fd5b5061033b610bfd565b604051808215151515815260200191505060405180910390f35b34801561036157600080fd5b5061036a610c2b565b6040518080602001828103825283818151815260200191508051906020019080838360005b838110156103aa57808201518184015260208101905061038f565b50505050905090810190601f1680156103d75780820380516001836020036101000a031916815260200191505b509250505060405180910390f35b3480156103f157600080fd5b506103fa610cc9565b6040518080602001828103825283818151815260200191508051906020019080838360005b8381101561043a57808201518184015260208101905061041f565b50505050905090810190601f1680156104675780820380516001836020036101000a031916815260200191505b509250505060405180910390f35b34801561048157600080fd5b5061048a610d67565b005b34801561049857600080fd5b506104a1610d8c565b604051808273ffffffffffffffffffffffffffffffffffffffff1673ffffffffffffffffffffffffffffffffffffffff16815260200191505060405180910390f35b3480156104ef57600080fd5b506104f8610d94565b6040518082600181111561050857fe5b60ff16815260200191505060405180910390f35b60006003838360405180838380828437820191505092505050908152602001604051809103902060000160009054906101000a900473ffffffffffffffffffffffffffffffffffffffff16905092915050565b6000600580549050905090565b6000600181111561058957fe5b6000809054906101000a900460ff1660018111156105a357fe5b14151561063e576040517f08c379a00000000000000000000000000000000000000000000000000000000081526004018080602001828103825260348152602001807f46696c652063616e6e6f7420626520616464656420746f20612072656769737481526020017f72792074686174206973206e6f74206f70656e2e00000000000000000000000081525060400191505060405180910390fd5b61064783610da6565b1515156106e2576040517f08c379a000000000000000000000000000000000000000000000000000000000815260040180806020018281038252603c8152602001807f5468697320636f6e747261637420616464726573732063616e6e6f742062652081526020017f7265676973746572656420746f2061207365636f6e642066696c652e0000000081525060400191505060405180910390fd5b82600460008573ffffffffffffffffffffffffffffffffffffffff1673ffffffffffffffffffffffffffffffffffffffff16815260200190815260200160002060000160006101000a81548173ffffffffffffffffffffffffffffffffffffffff021916908373ffffffffffffffffffffffffffffffffffffffff1602179055508181600460008673ffffffffffffffffffffffffffffffffffffffff1673ffffffffffffffffffffffffffffffffffffffff16815260200190815260200160002060010191906107b4929190610f49565b50600160058490806001815401808255809150509060018203906000526020600020016000909192909190916101000a81548173ffffffffffffffffffffffffffffffffffffffff021916908373ffffffffffffffffffffffffffffffffffffffff16021790555003600460008573ffffffffffffffffffffffffffffffffffffffff1673ffffffffffffffffffffffffffffffffffffffff16815260200190815260200160002060020181905550826003838360405180838380828437820191505092505050908152602001604051809103902060000160006101000a81548173ffffffffffffffffffffffffffffffffffffffff021916908373ffffffffffffffffffffffffffffffffffffffff1602179055508181600384846040518083838082843782019150509250505090815260200160405180910390206001019190610901929190610f49565b5060016006838390918060018154018082558091505090600182039060005260206000200160009091929390919293909192909192509190610944929190610f49565b50036003838360405180838380828437820191505092505050908152602001604051809103902060020181905550505050565b606060068281548110151561098857fe5b906000526020600020018054600181600116156101000203166002900480601f016020809104026020016040519081016040528092919081815260200182805460018160011615610100020316600290048015610a265780601f106109fb57610100808354040283529160200191610a26565b820191906000526020600020905b815481529060010190602001808311610a0957829003601f168201915b50505050509050919050565b600060608060006006805490501415610a4e5760009250610bb2565b84848080601f016020809104026020016040519081016040528093929190818152602001838380828437820191505050505050915060066003836040518082805190602001908083835b602083101515610abd5780518252602082019150602081019050602083039250610a98565b6001836020036101000a038019825116818451168082178552505050505050905001915050908152602001604051809103902060020154815481101515610b0057fe5b906000526020600020018054600181600116156101000203166002900480601f016020809104026020016040519081016040528092919081815260200182805460018160011615610100020316600290048015610b9e5780601f10610b7357610100808354040283529160200191610b9e565b820191906000526020600020905b815481529060010190602001808311610b8157829003601f168201915b50505050509050610baf8183610e70565b92505b505092915050565b6000600582815481101515610bcb57fe5b9060005260206000200160009054906101000a900473ffffffffffffffffffffffffffffffffffffffff169050919050565b6000806001811115610c0b57fe5b6000809054906101000a900460ff166001811115610c2557fe5b14905090565b60018054600181600116156101000203166002900480601f016020809104026020016040519081016040528092919081815260200182805460018160011615610100020316600290048015610cc15780601f10610c9657610100808354040283529160200191610cc1565b820191906000526020600020905b815481529060010190602001808311610ca457829003601f168201915b505050505081565b60028054600181600116156101000203166002900480601f016020809104026020016040519081016040528092919081815260200182805460018160011615610100020316600290048015610d5f5780601f10610d3457610100808354040283529160200191610d5f565b820191906000526020600020905b815481529060010190602001808311610d4257829003601f168201915b505050505081565b60016000806101000a81548160ff02191690836001811115610d8557fe5b0217905550565b600030905090565b6000809054906101000a900460ff1681565b6000806005805490501415610dbe5760009050610e6b565b8173ffffffffffffffffffffffffffffffffffffffff166005600460008573ffffffffffffffffffffffffffffffffffffffff1673ffffffffffffffffffffffffffffffffffffffff16815260200190815260200160002060020154815481101515610e2657fe5b9060005260206000200160009054906101000a900473ffffffffffffffffffffffffffffffffffffffff1673ffffffffffffffffffffffffffffffffffffffff161490505b919050565b6000816040518082805190602001908083835b602083101515610ea85780518252602082019150602081019050602083039250610e83565b6001836020036101000a038019825116818451168082178552505050505050905001915050604051809103902060001916836040518082805190602001908083835b602083101515610f0f5780518252602082019150602081019050602083039250610eea565b6001836020036101000a03801982511681845116808217855250505050505090500191505060405180910390206000191614905092915050565b828054600181600116156101000203166002900490600052602060002090601f016020900481019282601f10610f8a57803560ff1916838001178555610fb8565b82800160010185558215610fb8579182015b82811115610fb7578235825591602001919060010190610f9c565b5b509050610fc59190610fc9565b5090565b610feb91905b80821115610fe7576000816000905550600101610fcf565b5090565b905600a165627a7a72305820fbb471a96321d6c76275824421a7b2a7c5b16279a76a937cc39130391410c05e0029",
  "source": "\n// adapted from github.com/Azure-Samples/blockchain-devkit/blob/master/accelerators\n// adapted by Alexandria Pawlik, June 2019\n\n// version contains address-type parameters\n\n\npragma solidity ^0.4.24;\n\n// interface\nimport \"./interfaces/IFileRegistry.sol\";\n\n\n// FILE REGISTRY CONTRACT\n/////////////////////////////////////////////////////////////////\n\n\ncontract FileRegistry is IFileRegistry\n{\n\t///////////////// public data\n\n\n\tenum StateType { Open, Closed }\n\tStateType public State;\n\n  string public Name;\n\tstring public Description;\n\n\n  ///////////////// internal data\n\n\n\tstruct FileStruct \n\t{ \n\t\taddress FileContractAddress;\n\t\tstring FileId; \n\t\tuint Index;\n\t}\n\n\t// file tracking\n\tmapping(string => FileStruct) internal FileIdLookup;\n  mapping(address => FileStruct) internal FileContractAddressLookup;\n\taddress[] internal FileAddressIndex;\n\tstring[] internal FileIdIndex;\n\n\n  /////////////////\n\n\n\tconstructor (string name, string description) \n\tpublic\n\t{\n\t\tName = name;\n\t\tDescription = description;\n\t\tState = StateType.Open;\n\t}\n\n\n  ///////////////// accessible by blockchain users\n\n\n\tfunction CloseRegistry() \n\texternal \n\t{\n\t\tState = StateType.Closed;\n\t}\n\n\n  ///////////////// called by members of file array\n\n\n  function RegisterFile(address FileContractAddress, string FileId) \n\texternal\n\t{\n\t\t// if (State != StateType.Open) revert(\"File cannot be added to a registry that is not open.\");\n\t\t// if (IsRegisteredFileContractAddress(FileContractAddress)) revert(\"This contract address cannot be registered to a second file.\"); \n\t\trequire(State == StateType.Open, \"File cannot be added to a registry that is not open.\");\n\t\trequire(!IsRegisteredFileContractAddress(FileContractAddress), \"This contract address cannot be registered to a second file.\");\n\n\t\t// add lookup by address\n\t\tFileContractAddressLookup[FileContractAddress].FileContractAddress = FileContractAddress;\n\t\tFileContractAddressLookup[FileContractAddress].FileId = FileId;\n\t\tFileContractAddressLookup[FileContractAddress].Index = FileAddressIndex.push(FileContractAddress)-1;\n\n\t\t// add look up by reg number\n\t\tFileIdLookup[FileId].FileContractAddress = FileContractAddress;\n\t\tFileIdLookup[FileId].FileId = FileId;\n\t\tFileIdLookup[FileId].Index = FileIdIndex.push(FileId)-1;\n\t}\n\n  // lookup to see if this file is registered\n\tfunction IsRegisteredFileId(string FileId)\n\texternal \n\tview\n\treturns(bool isRegistered) \n\t{\n\t\tif(FileIdIndex.length == 0) return false;\n\n\t\tstring memory FileIdString = FileId;\n\t\tstring memory FileIdInternalString = FileIdIndex[FileIdLookup[FileIdString].Index];\n\n\t\treturn (compareStrings(FileIdInternalString, FileIdString));\n\t}\n\n\n\t///////////////// get functions for testing\n\n\n  function GetFileIdAtIndex(uint index)\n\texternal\n\tview\n\treturns (string)\n\t{\n\t\treturn FileIdIndex[index];\n\t}\n\n\tfunction GetFileAddressAtIndex(uint index)\n\texternal\n\tview\n\treturns (address)\n\t{\n\t\treturn FileAddressIndex[index];\n\t}\n\n\tfunction GetNumberOfFiles()\n\texternal\n\tview\n\treturns (uint)\n\t{\n\t\treturn FileAddressIndex.length;\n\t}\n\n\tfunction GetAddress()\n\texternal\n\tview\n\treturns (address)\n\t{\n\t\treturn address(this);\n\t}\n\n\tfunction IsOpen()\n\texternal\n\tview\n\treturns (bool)\n\t{\n\t\treturn (State == StateType.Open);\n\t}\n\n\n  ///////////////// called by receipts\n\n\n  function GetFileAddressGivenId(string fileid)\n  external\n  view\n  returns (address)\n  {\n    return FileIdLookup[fileid].FileContractAddress;\n  }\n\n\n  ///////////////// helper functions\n\n\n\t// lookup to see if a contract address for a File contract is already registered\n\tfunction IsRegisteredFileContractAddress(address FileContractAddress)\n\tinternal\n\tview\n\treturns(bool isRegistered) \n\t{\n\t\tif(FileAddressIndex.length == 0) return false;\n\t\t\t\n\t\treturn (FileAddressIndex[FileContractAddressLookup[FileContractAddress].Index] == FileContractAddress);\n\t}\n\n\tfunction bytes32ToString(bytes32 x)  \n\tinternal \n\tpure \n\treturns(string) \n\t{\n\t\tbytes memory bytesString = new bytes(32);\n\t\tuint charCount = 0;\n\t\tfor (uint j = 0; j < 32; j++) \n\t\t{\n\t\t\tbyte char = byte(bytes32(uint(x) * 2 ** (8 * j)));\n\t\t\tif (char != 0) \n\t\t\t{\n\t\t\t\tbytesString[charCount] = char;\n\t\t\t\tcharCount++;\n\t\t\t}\n\t\t}\n\n\t\tbytes memory bytesStringTrimmed = new bytes(charCount);\n\t\tfor (j = 0; j < charCount; j++) \n\t\t{\n\t\t\tbytesStringTrimmed[j] = bytesString[j];\n\t\t}\n\n\t\treturn string(bytesStringTrimmed);  \n\t}\n\n\tfunction compareStrings(string a, string b) \n\tinternal \n\tpure \n\treturns(bool)\n\t{\n\t\treturn keccak256(bytes(a)) == keccak256(bytes(b));\n\t}\n}",
  "sourcePath": "/Users/alexandriapawlik/Documents/Dev/AFGroup/fileVerificationContracts/contracts/FileRegistry.sol",
  "compiler": {
    "name": "solc",
    "version": "0.4.24+commit.e67f0147.Emscripten.clang"
  },
  "schemaVersion": "3.0.10",
  "updatedAt": "2019-06-20T13:10:53.191Z",
  "devdoc": {
    "methods": {}
  },
  "userdoc": {
    "methods": {
      "CloseRegistry()": {
        "notice": "////////////// accessible by blockchain users"
      },
      "GetFileAddressGivenId(string)": {
        "notice": "////////////// called by receipts"
      },
      "GetFileIdAtIndex(uint256)": {
        "notice": "////////////// get functions for testing"
      },
      "RegisterFile(address,string)": {
        "notice": "////////////// called by members of file array"
      }
    }
  }
}