{
  "contractName": "File",
  "abi": [
    {
      "constant": true,
      "inputs": [],
      "name": "ContentType",
      "outputs": [
        {
          "name": "",
          "type": "string"
        }
      ],
      "payable": false,
      "stateMutability": "view",
      "type": "function"
    },
    {
      "constant": true,
      "inputs": [],
      "name": "RegistryName",
      "outputs": [
        {
          "name": "",
          "type": "string"
        }
      ],
      "payable": false,
      "stateMutability": "view",
      "type": "function"
    },
    {
      "constant": true,
      "inputs": [],
      "name": "NumberReceipts",
      "outputs": [
        {
          "name": "",
          "type": "string"
        }
      ],
      "payable": false,
      "stateMutability": "view",
      "type": "function"
    },
    {
      "constant": true,
      "inputs": [],
      "name": "UploadDateTime",
      "outputs": [
        {
          "name": "",
          "type": "string"
        }
      ],
      "payable": false,
      "stateMutability": "view",
      "type": "function"
    },
    {
      "constant": true,
      "inputs": [],
      "name": "FileName",
      "outputs": [
        {
          "name": "",
          "type": "string"
        }
      ],
      "payable": false,
      "stateMutability": "view",
      "type": "function"
    },
    {
      "constant": true,
      "inputs": [],
      "name": "FileId",
      "outputs": [
        {
          "name": "",
          "type": "string"
        }
      ],
      "payable": false,
      "stateMutability": "view",
      "type": "function"
    },
    {
      "constant": true,
      "inputs": [],
      "name": "State",
      "outputs": [
        {
          "name": "",
          "type": "uint8"
        }
      ],
      "payable": false,
      "stateMutability": "view",
      "type": "function"
    },
    {
      "constant": true,
      "inputs": [],
      "name": "Etag",
      "outputs": [
        {
          "name": "",
          "type": "string"
        }
      ],
      "payable": false,
      "stateMutability": "view",
      "type": "function"
    },
    {
      "inputs": [
        {
          "name": "registryAddress",
          "type": "address"
        },
        {
          "name": "filename",
          "type": "string"
        },
        {
          "name": "fileId",
          "type": "string"
        },
        {
          "name": "fileHash",
          "type": "string"
        },
        {
          "name": "metadataHash",
          "type": "string"
        },
        {
          "name": "contentType",
          "type": "string"
        },
        {
          "name": "etag",
          "type": "string"
        }
      ],
      "payable": false,
      "stateMutability": "nonpayable",
      "type": "constructor"
    },
    {
      "constant": false,
      "inputs": [],
      "name": "Delete",
      "outputs": [],
      "payable": false,
      "stateMutability": "nonpayable",
      "type": "function"
    },
    {
      "constant": true,
      "inputs": [],
      "name": "Update",
      "outputs": [],
      "payable": false,
      "stateMutability": "pure",
      "type": "function"
    },
    {
      "constant": false,
      "inputs": [
        {
          "name": "ReceiptContractAddress",
          "type": "address"
        }
      ],
      "name": "AddReceipt",
      "outputs": [
        {
          "name": "ReceiptDT",
          "type": "string"
        }
      ],
      "payable": false,
      "stateMutability": "nonpayable",
      "type": "function"
    },
    {
      "constant": true,
      "inputs": [
        {
          "name": "idx",
          "type": "uint256"
        }
      ],
      "name": "GetReceiptDTAtIndex",
      "outputs": [
        {
          "name": "at",
          "type": "string"
        }
      ],
      "payable": false,
      "stateMutability": "view",
      "type": "function"
    },
    {
      "constant": true,
      "inputs": [
        {
          "name": "idx",
          "type": "uint256"
        }
      ],
      "name": "GetReceiptAddressBefore",
      "outputs": [
        {
          "name": "last",
          "type": "address"
        }
      ],
      "payable": false,
      "stateMutability": "view",
      "type": "function"
    },
    {
      "constant": true,
      "inputs": [
        {
          "name": "idx",
          "type": "uint256"
        }
      ],
      "name": "GetReceiptAddressAtIndex",
      "outputs": [
        {
          "name": "at",
          "type": "address"
        }
      ],
      "payable": false,
      "stateMutability": "view",
      "type": "function"
    },
    {
      "constant": true,
      "inputs": [],
      "name": "GetNumberOfReceipts",
      "outputs": [
        {
          "name": "",
          "type": "uint256"
        }
      ],
      "payable": false,
      "stateMutability": "view",
      "type": "function"
    },
    {
      "constant": true,
      "inputs": [],
      "name": "GetFileHash",
      "outputs": [
        {
          "name": "",
          "type": "string"
        }
      ],
      "payable": false,
      "stateMutability": "view",
      "type": "function"
    },
    {
      "constant": true,
      "inputs": [],
      "name": "GetMetadataHash",
      "outputs": [
        {
          "name": "",
          "type": "string"
        }
      ],
      "payable": false,
      "stateMutability": "view",
      "type": "function"
    },
    {
      "constant": true,
      "inputs": [
        {
          "name": "receipt",
          "type": "address"
        }
      ],
      "name": "GetIndexOfReceipt",
      "outputs": [
        {
          "name": "idx",
          "type": "uint256"
        }
      ],
      "payable": false,
      "stateMutability": "view",
      "type": "function"
    },
    {
      "constant": true,
      "inputs": [],
      "name": "GetAddress",
      "outputs": [
        {
          "name": "",
          "type": "address"
        }
      ],
      "payable": false,
      "stateMutability": "view",
      "type": "function"
    },
    {
      "constant": true,
      "inputs": [],
      "name": "NotDeleted",
      "outputs": [
        {
          "name": "",
          "type": "bool"
        }
      ],
      "payable": false,
      "stateMutability": "view",
      "type": "function"
    }
  ],
  "bytecode": "0x60806040523480156200001157600080fd5b5060405162004154380380620041548339810180604052810190808051906020019092919080518201929190602001805182019291906020018051820192919060200180518201929190602001805182019291906020018051820192919050505085600290805190602001906200008a92919062001786565b508460039080519060200190620000a392919062001786565b508360099080519060200190620000bc92919062001786565b5082600a9080519060200190620000d592919062001786565b508160049080519060200190620000ee92919062001786565b5080600590805190602001906200010792919062001786565b506200013a620001256200070a640100000000026401000000009004565b6200094f640100000000026401000000009004565b600690805190602001906200015192919062001786565b5060006008819055506040805190810160405280600181526020017f300000000000000000000000000000000000000000000000000000000000000081525060079080519060200190620001a792919062001786565b5086600c60006101000a81548173ffffffffffffffffffffffffffffffffffffffff021916908373ffffffffffffffffffffffffffffffffffffffff160217905550600c60009054906101000a900473ffffffffffffffffffffffffffffffffffffffff16600b60006101000a81548173ffffffffffffffffffffffffffffffffffffffff021916908373ffffffffffffffffffffffffffffffffffffffff160217905550600b60009054906101000a900473ffffffffffffffffffffffffffffffffffffffff1673ffffffffffffffffffffffffffffffffffffffff16638052474d6040518163ffffffff167c0100000000000000000000000000000000000000000000000000000000028152600401600060405180830381600087803b158015620002d357600080fd5b505af1158015620002e8573d6000803e3d6000fd5b505050506040513d6000823e3d601f19601f8201168201806040525060208110156200031357600080fd5b8101908080516401000000008111156200032c57600080fd5b828101905060208101848111156200034357600080fd5b81518560018202830111640100000000821117156200036157600080fd5b5050929190505050600190805190602001906200038092919062001786565b50600b60009054906101000a900473ffffffffffffffffffffffffffffffffffffffff1673ffffffffffffffffffffffffffffffffffffffff1663346de76d60036040518263ffffffff167c01000000000000000000000000000000000000000000000000000000000281526004018080602001828103825283818154600181600116156101000203166002900481526020019150805460018160011615610100020316600290048015620004795780601f106200044d5761010080835404028352916020019162000479565b820191906000526020600020905b8154815290600101906020018083116200045b57829003601f168201915b505092505050602060405180830381600087803b1580156200049a57600080fd5b505af1158015620004af573d6000803e3d6000fd5b505050506040513d6020811015620004c657600080fd5b810190808051906020019092919050505015151562000573576040517f08c379a00000000000000000000000000000000000000000000000000000000081526004018080602001828103825260308152602001807f412066696c65207769746820746869732069642068617320616c72656164792081526020017f6265656e20726567697374657265642e0000000000000000000000000000000081525060400191505060405180910390fd5b600b60009054906101000a900473ffffffffffffffffffffffffffffffffffffffff1673ffffffffffffffffffffffffffffffffffffffff166329d99ba13060036040518363ffffffff167c0100000000000000000000000000000000000000000000000000000000028152600401808373ffffffffffffffffffffffffffffffffffffffff1673ffffffffffffffffffffffffffffffffffffffff168152602001806020018281038252838181546001816001161561010002031660029004815260200191508054600181600116156101000203166002900480156200069e5780601f1062000672576101008083540402835291602001916200069e565b820191906000526020600020905b8154815290600101906020018083116200068057829003601f168201915b50509350505050600060405180830381600087803b158015620006c057600080fd5b505af1158015620006d5573d6000803e3d6000fd5b5050505060008060006101000a81548160ff02191690836002811115620006f857fe5b02179055505050505050505062001889565b620007146200180d565b6000806000806000429450600093506200073d8562000f65640100000000026401000000009004565b866000019061ffff16908161ffff1681525050620007706107b261ffff1662001048640100000000026401000000009004565b62000792876000015161ffff1662001048640100000000026401000000009004565b039250826301e285000284019350826107b287600001510361ffff16036301e1338002840193506064866000015161ffff16811515620007ce57fe5b06866020019060ff16908160ff1681525050600191505b600c8260ff1611151562000852576200081282876000015162001084640100000000026401000000009004565b60ff16620151800290508484820111156200083f5781866040019060ff16908160ff168152505062000852565b80840193508180600101925050620007e5565b600191505b6200087a8660400151876000015162001084640100000000026401000000009004565b60ff168260ff16111515620008c557848462015180011115620008af5781866060019060ff16908160ff1681525050620008c5565b6201518084019350818060010192505062000857565b6018603c8087811515620008d557fe5b04811515620008e057fe5b04811515620008eb57fe5b06866080019060ff16908160ff1681525050603c80868115156200090b57fe5b048115156200091657fe5b068660a0019060ff16908160ff1681525050603c858115156200093557fe5b068660c0019060ff16908160ff1681525050505050505090565b606080606080606080600a876040015160ff16101562000a145762000a0c6040805190810160405280600181526020017f3000000000000000000000000000000000000000000000000000000000000000815250620009c4896040015160ff1662001170640100000000026401000000009004565b602060405190810160405280600081525060206040519081016040528060008152506020604051908101604052806000815250620012d2640100000000026401000000009004565b915062000a38565b62000a35876040015160ff1662001170640100000000026401000000009004565b91505b600a876060015160ff16101562000af45762000aec6040805190810160405280600181526020017f300000000000000000000000000000000000000000000000000000000000000081525062000aa4896060015160ff1662001170640100000000026401000000009004565b602060405190810160405280600081525060206040519081016040528060008152506020604051908101604052806000815250620012d2640100000000026401000000009004565b905062000b18565b62000b15876060015160ff1662001170640100000000026401000000009004565b90505b600a876080015160ff16101562000bd45762000bcc6040805190810160405280600181526020017f300000000000000000000000000000000000000000000000000000000000000081525062000b84896080015160ff1662001170640100000000026401000000009004565b602060405190810160405280600081525060206040519081016040528060008152506020604051908101604052806000815250620012d2640100000000026401000000009004565b945062000bf8565b62000bf5876080015160ff1662001170640100000000026401000000009004565b94505b600a8760a0015160ff16101562000cb45762000cac6040805190810160405280600181526020017f300000000000000000000000000000000000000000000000000000000000000081525062000c648960a0015160ff1662001170640100000000026401000000009004565b602060405190810160405280600081525060206040519081016040528060008152506020604051908101604052806000815250620012d2640100000000026401000000009004565b935062000cd8565b62000cd58760a0015160ff1662001170640100000000026401000000009004565b93505b600a8760c0015160ff16101562000d945762000d8c6040805190810160405280600181526020017f300000000000000000000000000000000000000000000000000000000000000081525062000d448960c0015160ff1662001170640100000000026401000000009004565b602060405190810160405280600081525060206040519081016040528060008152506020604051908101604052806000815250620012d2640100000000026401000000009004565b925062000db8565b62000db58760c0015160ff1662001170640100000000026401000000009004565b92505b62000f5962000e64836040805190810160405280600181526020017f2f00000000000000000000000000000000000000000000000000000000000000815250846040805190810160405280600181526020017f2f0000000000000000000000000000000000000000000000000000000000000081525062000e4f8d6020015160ff1662001170640100000000026401000000009004565b620012d2640100000000026401000000009004565b6040805190810160405280600181526020017f200000000000000000000000000000000000000000000000000000000000000081525062000f22886040805190810160405280600181526020017f3a00000000000000000000000000000000000000000000000000000000000000815250896040805190810160405280600181526020017f3a000000000000000000000000000000000000000000000000000000000000008152508a620012d2640100000000026401000000009004565b60206040519081016040528060008152506020604051908101604052806000815250620012d2640100000000026401000000009004565b95505050505050919050565b600080600080600092506301e133808581151562000f7f57fe5b046107b261ffff1601915062000faa6107b261ffff1662001048640100000000026401000000009004565b62000fc88361ffff1662001048640100000000026401000000009004565b039050806301e285000283019250806107b2830361ffff16036301e1338002830192505b848311156200103d576200101260018303620016fc640100000000026401000000009004565b1562001027576301e285008303925062001031565b6301e13380830392505b60018203915062000fec565b819350505050919050565b6000600182039150610190828115156200105e57fe5b046064838115156200106c57fe5b046004848115156200107a57fe5b0403019050919050565b600060018360ff1614806200109c575060038360ff16145b80620010ab575060058360ff16145b80620010ba575060078360ff16145b80620010c9575060088360ff16145b80620010d85750600a8360ff16145b80620010e75750600c8360ff16145b15620010f757601f90506200116a565b60048360ff1614806200110d575060068360ff16145b806200111c575060098360ff16145b806200112b5750600b8360ff16145b156200113b57601e90506200116a565b6200115582620016fc640100000000026401000000009004565b156200116557601d90506200116a565b601c90505b92915050565b60606000806060600080861415620011c0576040805190810160405280600181526020017f30000000000000000000000000000000000000000000000000000000000000008152509450620012c9565b8593505b600084141515620011ed578280600101935050600a84811515620011e457fe5b049350620011c4565b826040519080825280601f01601f191660200182016040528015620012215781602001602082028038833980820191505090505b5091506001830390505b600086141515620012c557600a868115156200124357fe5b066030017f0100000000000000000000000000000000000000000000000000000000000000028282806001900393508151811015156200127f57fe5b9060200101907effffffffffffffffffffffffffffffffffffffffffffffffffffffffffffff1916908160001a905350600a86811515620012bc57fe5b0495506200122b565b8194505b50505050919050565b6060806060806060806060806000808e98508d97508c96508b95508a94508451865188518a518c51010101016040519080825280601f01601f191660200182016040528015620013315781602001602082028038833980820191505090505b50935083925060009150600090505b8851811015620013f75788818151811015156200135957fe5b9060200101517f010000000000000000000000000000000000000000000000000000000000000090047f0100000000000000000000000000000000000000000000000000000000000000028383806001019450815181101515620013b957fe5b9060200101907effffffffffffffffffffffffffffffffffffffffffffffffffffffffffffff1916908160001a905350808060010191505062001340565b600090505b8751811015620014b35787818151811015156200141557fe5b9060200101517f010000000000000000000000000000000000000000000000000000000000000090047f01000000000000000000000000000000000000000000000000000000000000000283838060010194508151811015156200147557fe5b9060200101907effffffffffffffffffffffffffffffffffffffffffffffffffffffffffffff1916908160001a9053508080600101915050620013fc565b600090505b86518110156200156f578681815181101515620014d157fe5b9060200101517f010000000000000000000000000000000000000000000000000000000000000090047f01000000000000000000000000000000000000000000000000000000000000000283838060010194508151811015156200153157fe5b9060200101907effffffffffffffffffffffffffffffffffffffffffffffffffffffffffffff1916908160001a9053508080600101915050620014b8565b600090505b85518110156200162b5785818151811015156200158d57fe5b9060200101517f010000000000000000000000000000000000000000000000000000000000000090047f0100000000000000000000000000000000000000000000000000000000000000028383806001019450815181101515620015ed57fe5b9060200101907effffffffffffffffffffffffffffffffffffffffffffffffffffffffffffff1916908160001a905350808060010191505062001574565b600090505b8451811015620016e75784818151811015156200164957fe5b9060200101517f010000000000000000000000000000000000000000000000000000000000000090047f0100000000000000000000000000000000000000000000000000000000000000028383806001019450815181101515620016a957fe5b9060200101907effffffffffffffffffffffffffffffffffffffffffffffffffffffffffffff1916908160001a905350808060010191505062001630565b82995050505050505050505095945050505050565b60008060048361ffff168115156200171057fe5b0661ffff1614151562001727576000905062001781565b600060648361ffff168115156200173a57fe5b0661ffff1614151562001751576001905062001781565b60006101908361ffff168115156200176557fe5b0661ffff161415156200177c576000905062001781565b600190505b919050565b828054600181600116156101000203166002900490600052602060002090601f016020900481019282601f10620017c957805160ff1916838001178555620017fa565b82800160010185558215620017fa579182015b82811115620017f9578251825591602001919060010190620017dc565b5b50905062001809919062001861565b5090565b60e060405190810160405280600061ffff168152602001600060ff168152602001600060ff168152602001600060ff168152602001600060ff168152602001600060ff168152602001600060ff1681525090565b6200188691905b808211156200188257600081600090555060010162001868565b5090565b90565b6128bb80620018996000396000f300608060405260043610610112576000357c0100000000000000000000000000000000000000000000000000000000900463ffffffff168063078e84c3146101175780630cac2c6e146101bd57806311c5c1fb1461024d5780631c3cecef146102ba578063355c91dd1461034a57806371c5d5a3146103da57806388e9ccce1461046a5780638e6b6c20146104fa5780639032d437146105b6578063af4b7f14146105e5578063bf65d492146105fc578063cb3805eb1461068c578063d00e6ffd146106f9578063dc6a65b914610724578063e046c4dc146107b4578063e22cbac6146107cb578063ebadf0731461085b578063f1095222146108b2578063f1b6dccd14610909578063f708918514610942575b600080fd5b34801561012357600080fd5b50610142600480360381019080803590602001909291905050506109d2565b6040518080602001828103825283818151815260200191508051906020019080838360005b83811015610182578082015181840152602081019050610167565b50505050905090810190601f1680156101af5780820380516001836020036101000a031916815260200191505b509250505060405180910390f35b3480156101c957600080fd5b506101d2610b2c565b6040518080602001828103825283818151815260200191508051906020019080838360005b838110156102125780820151818401526020810190506101f7565b50505050905090810190601f16801561023f5780820380516001836020036101000a031916815260200191505b509250505060405180910390f35b34801561025957600080fd5b5061027860048036038101908080359060200190929190505050610bce565b604051808273ffffffffffffffffffffffffffffffffffffffff1673ffffffffffffffffffffffffffffffffffffffff16815260200191505060405180910390f35b3480156102c657600080fd5b506102cf610cb0565b6040518080602001828103825283818151815260200191508051906020019080838360005b8381101561030f5780820151818401526020810190506102f4565b50505050905090810190601f16801561033c5780820380516001836020036101000a031916815260200191505b509250505060405180910390f35b34801561035657600080fd5b5061035f610d4e565b6040518080602001828103825283818151815260200191508051906020019080838360005b8381101561039f578082015181840152602081019050610384565b50505050905090810190601f1680156103cc5780820380516001836020036101000a031916815260200191505b509250505060405180910390f35b3480156103e657600080fd5b506103ef610dec565b6040518080602001828103825283818151815260200191508051906020019080838360005b8381101561042f578082015181840152602081019050610414565b50505050905090810190601f16801561045c5780820380516001836020036101000a031916815260200191505b509250505060405180910390f35b34801561047657600080fd5b5061047f610e8a565b6040518080602001828103825283818151815260200191508051906020019080838360005b838110156104bf5780820151818401526020810190506104a4565b50505050905090810190601f1680156104ec5780820380516001836020036101000a031916815260200191505b509250505060405180910390f35b34801561050657600080fd5b5061053b600480360381019080803573ffffffffffffffffffffffffffffffffffffffff169060200190929190505050610f28565b6040518080602001828103825283818151815260200191508051906020019080838360005b8381101561057b578082015181840152602081019050610560565b50505050905090810190601f1680156105a85780820380516001836020036101000a031916815260200191505b509250505060405180910390f35b3480156105c257600080fd5b506105cb611493565b604051808215151515815260200191505060405180910390f35b3480156105f157600080fd5b506105fa6114c2565b005b34801561060857600080fd5b506106116114c4565b6040518080602001828103825283818151815260200191508051906020019080838360005b83811015610651578082015181840152602081019050610636565b50505050905090810190601f16801561067e5780820380516001836020036101000a031916815260200191505b509250505060405180910390f35b34801561069857600080fd5b506106b760048036038101908080359060200190929190505050611562565b604051808273ffffffffffffffffffffffffffffffffffffffff1673ffffffffffffffffffffffffffffffffffffffff16815260200191505060405180910390f35b34801561070557600080fd5b5061070e611614565b6040518082815260200191505060405180910390f35b34801561073057600080fd5b5061073961161e565b6040518080602001828103825283818151815260200191508051906020019080838360005b8381101561077957808201518184015260208101905061075e565b50505050905090810190601f1680156107a65780820380516001836020036101000a031916815260200191505b509250505060405180910390f35b3480156107c057600080fd5b506107c96116c0565b005b3480156107d757600080fd5b506107e06116e5565b6040518080602001828103825283818151815260200191508051906020019080838360005b83811015610820578082015181840152602081019050610805565b50505050905090810190601f16801561084d5780820380516001836020036101000a031916815260200191505b509250505060405180910390f35b34801561086757600080fd5b5061089c600480360381019080803573ffffffffffffffffffffffffffffffffffffffff169060200190929190505050611783565b6040518082815260200191505060405180910390f35b3480156108be57600080fd5b506108c76117cf565b604051808273ffffffffffffffffffffffffffffffffffffffff1673ffffffffffffffffffffffffffffffffffffffff16815260200191505060405180910390f35b34801561091557600080fd5b5061091e6117d7565b6040518082600281111561092e57fe5b60ff16815260200191505060405180910390f35b34801561094e57600080fd5b506109576117e9565b6040518080602001828103825283818151815260200191508051906020019080838360005b8381101561099757808201518184015260208101905061097c565b50505050905090810190601f1680156109c45780820380516001836020036101000a031916815260200191505b509250505060405180910390f35b606060085482101515610a73576040517f08c379a00000000000000000000000000000000000000000000000000000000081526004018080602001828103825260318152602001807f496e6465782070617373656420746f204765745265636569707444544174496e81526020017f64657820697320746f6f206c617267652e00000000000000000000000000000081525060400191505060405180910390fd5b601082815481101515610a8257fe5b906000526020600020018054600181600116156101000203166002900480601f016020809104026020016040519081016040528092919081815260200182805460018160011615610100020316600290048015610b205780601f10610af557610100808354040283529160200191610b20565b820191906000526020600020905b815481529060010190602001808311610b0357829003601f168201915b50505050509050919050565b6060600a8054600181600116156101000203166002900480601f016020809104026020016040519081016040528092919081815260200182805460018160011615610100020316600290048015610bc45780601f10610b9957610100808354040283529160200191610bc4565b820191906000526020600020905b815481529060010190602001808311610ba757829003601f168201915b5050505050905090565b600060085482101515610c6f576040517f08c379a00000000000000000000000000000000000000000000000000000000081526004018080602001828103825260368152602001807f496e6465782070617373656420746f204765745265636569707441646472657381526020017f734174496e64657820697320746f6f206c617267652e0000000000000000000081525060400191505060405180910390fd5b600e82815481101515610c7e57fe5b9060005260206000200160009054906101000a900473ffffffffffffffffffffffffffffffffffffffff169050919050565b60048054600181600116156101000203166002900480601f016020809104026020016040519081016040528092919081815260200182805460018160011615610100020316600290048015610d465780601f10610d1b57610100808354040283529160200191610d46565b820191906000526020600020905b815481529060010190602001808311610d2957829003601f168201915b505050505081565b60018054600181600116156101000203166002900480601f016020809104026020016040519081016040528092919081815260200182805460018160011615610100020316600290048015610de45780601f10610db957610100808354040283529160200191610de4565b820191906000526020600020905b815481529060010190602001808311610dc757829003601f168201915b505050505081565b60078054600181600116156101000203166002900480601f016020809104026020016040519081016040528092919081815260200182805460018160011615610100020316600290048015610e825780601f10610e5757610100808354040283529160200191610e82565b820191906000526020600020905b815481529060010190602001808311610e6557829003601f168201915b505050505081565b60068054600181600116156101000203166002900480601f016020809104026020016040519081016040528092919081815260200182805460018160011615610100020316600290048015610f205780601f10610ef557610100808354040283529160200191610f20565b820191906000526020600020905b815481529060010190602001808311610f0357829003601f168201915b505050505081565b6060610f3a610f35611887565b611a66565b9050600280811115610f4857fe5b6000809054906101000a900460ff166002811115610f6257fe5b14151515610ffe576040517f08c379a000000000000000000000000000000000000000000000000000000000815260040180806020018281038252602d8152602001807f526563656970742063616e6e6f74206265206372656174656420666f7220612081526020017f64656c657465642066696c652e0000000000000000000000000000000000000081525060400191505060405180910390fd5b61100782611f2f565b1515156110a2576040517f08c379a000000000000000000000000000000000000000000000000000000000815260040180806020018281038252603f8152602001807f5468697320636f6e747261637420616464726573732063616e6e6f742062652081526020017f7265676973746572656420746f2061207365636f6e6420726563656970742e0081525060400191505060405180910390fd5b81600d60008473ffffffffffffffffffffffffffffffffffffffff1673ffffffffffffffffffffffffffffffffffffffff16815260200190815260200160002060000160006101000a81548173ffffffffffffffffffffffffffffffffffffffff021916908373ffffffffffffffffffffffffffffffffffffffff16021790555080600d60008473ffffffffffffffffffffffffffffffffffffffff1673ffffffffffffffffffffffffffffffffffffffff1681526020019081526020016000206001019080519060200190611179929190612796565b506001600e8390806001815401808255809150509060018203906000526020600020016000909192909190916101000a81548173ffffffffffffffffffffffffffffffffffffffff021916908373ffffffffffffffffffffffffffffffffffffffff16021790555003600d60008473ffffffffffffffffffffffffffffffffffffffff1673ffffffffffffffffffffffffffffffffffffffff1681526020019081526020016000206002018190555081600f826040518082805190602001908083835b602083101515611261578051825260208201915060208101905060208303925061123c565b6001836020036101000a038019825116818451168082178552505050505050905001915050908152602001604051809103902060000160006101000a81548173ffffffffffffffffffffffffffffffffffffffff021916908373ffffffffffffffffffffffffffffffffffffffff16021790555080600f826040518082805190602001908083835b60208310151561130e57805182526020820191506020810190506020830392506112e9565b6001836020036101000a03801982511681845116808217855250505050505090500191505090815260200160405180910390206001019080519060200190611357929190612796565b5060016010829080600181540180825580915050906001820390600052602060002001600090919290919091509080519060200190611397929190612796565b5003600f826040518082805190602001908083835b6020831015156113d157805182526020820191506020810190506020830392506113ac565b6001836020036101000a03801982511681845116808217855250505050505090500191505090815260200160405180910390206002018190555060086000815460010191905081905550611426600854611ff9565b6007908051906020019061143b929190612796565b506001600281111561144957fe5b6000809054906101000a900460ff16600281111561146357fe5b14151561148e5760016000806101000a81548160ff0219169083600281111561148857fe5b02179055505b919050565b60006002808111156114a157fe5b6000809054906101000a900460ff1660028111156114bb57fe5b1415905090565b565b60028054600181600116156101000203166002900480601f01602080910402602001604051908101604052809291908181526020018280546001816001161561010002031660029004801561155a5780601f1061152f5761010080835404028352916020019161155a565b820191906000526020600020905b81548152906001019060200180831161153d57829003601f168201915b505050505081565b60008082111515611601576040517f08c379a00000000000000000000000000000000000000000000000000000000081526004018080602001828103825260358152602001807f496e6465782070617373656420746f204765745265636569707441646472657381526020017f734265666f726520697320746f6f20736d616c6c2e000000000000000000000081525060400191505060405180910390fd5b61160d60018303610bce565b9050919050565b6000600854905090565b606060098054600181600116156101000203166002900480601f0160208091040260200160405190810160405280929190818152602001828054600181600116156101000203166002900480156116b65780601f1061168b576101008083540402835291602001916116b6565b820191906000526020600020905b81548152906001019060200180831161169957829003601f168201915b5050505050905090565b60026000806101000a81548160ff021916908360028111156116de57fe5b0217905550565b60038054600181600116156101000203166002900480601f01602080910402602001604051908101604052809291908181526020018280546001816001161561010002031660029004801561177b5780601f106117505761010080835404028352916020019161177b565b820191906000526020600020905b81548152906001019060200180831161175e57829003601f168201915b505050505081565b6000600d60008373ffffffffffffffffffffffffffffffffffffffff1673ffffffffffffffffffffffffffffffffffffffff168152602001908152602001600020600201549050919050565b600030905090565b6000809054906101000a900460ff1681565b60058054600181600116156101000203166002900480601f01602080910402602001604051908101604052809291908181526020018280546001816001161561010002031660029004801561187f5780601f106118545761010080835404028352916020019161187f565b820191906000526020600020905b81548152906001019060200180831161186257829003601f168201915b505050505081565b61188f612816565b6000806000806000429450600093506118a785612150565b866000019061ffff16908161ffff16815250506118c96107b261ffff166121fb565b6118da876000015161ffff166121fb565b039250826301e285000284019350826107b287600001510361ffff16036301e1338002840193506064866000015161ffff1681151561191557fe5b06866020019060ff16908160ff1681525050600191505b600c8260ff1611151561198457611947828760000151612234565b60ff16620151800290508484820111156119725781866040019060ff16908160ff1681525050611984565b8084019350818060010192505061192c565b600191505b61199b86604001518760000151612234565b60ff168260ff161115156119e2578484620151800111156119cd5781866060019060ff16908160ff16815250506119e2565b62015180840193508180600101925050611989565b6018603c80878115156119f157fe5b048115156119fb57fe5b04811515611a0557fe5b06866080019060ff16908160ff1681525050603c8086811515611a2457fe5b04811515611a2e57fe5b068660a0019060ff16908160ff1681525050603c85811515611a4c57fe5b068660c0019060ff16908160ff1681525050505050505090565b606080606080606080600a876040015160ff161015611b0757611b006040805190810160405280600181526020017f3000000000000000000000000000000000000000000000000000000000000000815250611ac8896040015160ff16611ff9565b602060405190810160405280600081525060206040519081016040528060008152506020604051908101604052806000815250612300565b9150611b1a565b611b17876040015160ff16611ff9565b91505b600a876060015160ff161015611bb257611bab6040805190810160405280600181526020017f3000000000000000000000000000000000000000000000000000000000000000815250611b73896060015160ff16611ff9565b602060405190810160405280600081525060206040519081016040528060008152506020604051908101604052806000815250612300565b9050611bc5565b611bc2876060015160ff16611ff9565b90505b600a876080015160ff161015611c5d57611c566040805190810160405280600181526020017f3000000000000000000000000000000000000000000000000000000000000000815250611c1e896080015160ff16611ff9565b602060405190810160405280600081525060206040519081016040528060008152506020604051908101604052806000815250612300565b9450611c70565b611c6d876080015160ff16611ff9565b94505b600a8760a0015160ff161015611d0857611d016040805190810160405280600181526020017f3000000000000000000000000000000000000000000000000000000000000000815250611cc98960a0015160ff16611ff9565b602060405190810160405280600081525060206040519081016040528060008152506020604051908101604052806000815250612300565b9350611d1b565b611d188760a0015160ff16611ff9565b93505b600a8760c0015160ff161015611db357611dac6040805190810160405280600181526020017f3000000000000000000000000000000000000000000000000000000000000000815250611d748960c0015160ff16611ff9565b602060405190810160405280600081525060206040519081016040528060008152506020604051908101604052806000815250612300565b9250611dc6565b611dc38760c0015160ff16611ff9565b92505b611f23611e4f836040805190810160405280600181526020017f2f00000000000000000000000000000000000000000000000000000000000000815250846040805190810160405280600181526020017f2f00000000000000000000000000000000000000000000000000000000000000815250611e4a8d6020015160ff16611ff9565b612300565b6040805190810160405280600181526020017f2000000000000000000000000000000000000000000000000000000000000000815250611efc886040805190810160405280600181526020017f3a00000000000000000000000000000000000000000000000000000000000000815250896040805190810160405280600181526020017f3a000000000000000000000000000000000000000000000000000000000000008152508a612300565b60206040519081016040528060008152506020604051908101604052806000815250612300565b95505050505050919050565b600080600e805490501415611f475760009050611ff4565b8173ffffffffffffffffffffffffffffffffffffffff16600e600d60008573ffffffffffffffffffffffffffffffffffffffff1673ffffffffffffffffffffffffffffffffffffffff16815260200190815260200160002060020154815481101515611faf57fe5b9060005260206000200160009054906101000a900473ffffffffffffffffffffffffffffffffffffffff1673ffffffffffffffffffffffffffffffffffffffff161490505b919050565b60606000806060600080861415612047576040805190810160405280600181526020017f30000000000000000000000000000000000000000000000000000000000000008152509450612147565b8593505b600084141515612071578280600101935050600a8481151561206957fe5b04935061204b565b826040519080825280601f01601f1916602001820160405280156120a45781602001602082028038833980820191505090505b5091506001830390505b60008614151561214357600a868115156120c457fe5b066030017f0100000000000000000000000000000000000000000000000000000000000000028282806001900393508151811015156120ff57fe5b9060200101907effffffffffffffffffffffffffffffffffffffffffffffffffffffffffffff1916908160001a905350600a8681151561213b57fe5b0495506120ae565b8194505b50505050919050565b600080600080600092506301e133808581151561216957fe5b046107b261ffff160191506121836107b261ffff166121fb565b6121908361ffff166121fb565b039050806301e285000283019250806107b2830361ffff16036301e1338002830192505b848311156121f0576121c860018303612715565b156121db576301e28500830392506121e5565b6301e13380830392505b6001820391506121b4565b819350505050919050565b60006001820391506101908281151561221057fe5b0460648381151561221d57fe5b0460048481151561222a57fe5b0403019050919050565b600060018360ff16148061224b575060038360ff16145b80612259575060058360ff16145b80612267575060078360ff16145b80612275575060088360ff16145b806122835750600a8360ff16145b806122915750600c8360ff16145b1561229f57601f90506122fa565b60048360ff1614806122b4575060068360ff16145b806122c2575060098360ff16145b806122d05750600b8360ff16145b156122de57601e90506122fa565b6122e782612715565b156122f557601d90506122fa565b601c90505b92915050565b6060806060806060806060806000808e98508d97508c96508b95508a94508451865188518a518c51010101016040519080825280601f01601f19166020018201604052801561235e5781602001602082028038833980820191505090505b50935083925060009150600090505b885181101561242057888181518110151561238457fe5b9060200101517f010000000000000000000000000000000000000000000000000000000000000090047f01000000000000000000000000000000000000000000000000000000000000000283838060010194508151811015156123e357fe5b9060200101907effffffffffffffffffffffffffffffffffffffffffffffffffffffffffffff1916908160001a905350808060010191505061236d565b600090505b87518110156124d857878181518110151561243c57fe5b9060200101517f010000000000000000000000000000000000000000000000000000000000000090047f010000000000000000000000000000000000000000000000000000000000000002838380600101945081518110151561249b57fe5b9060200101907effffffffffffffffffffffffffffffffffffffffffffffffffffffffffffff1916908160001a9053508080600101915050612425565b600090505b86518110156125905786818151811015156124f457fe5b9060200101517f010000000000000000000000000000000000000000000000000000000000000090047f010000000000000000000000000000000000000000000000000000000000000002838380600101945081518110151561255357fe5b9060200101907effffffffffffffffffffffffffffffffffffffffffffffffffffffffffffff1916908160001a90535080806001019150506124dd565b600090505b85518110156126485785818151811015156125ac57fe5b9060200101517f010000000000000000000000000000000000000000000000000000000000000090047f010000000000000000000000000000000000000000000000000000000000000002838380600101945081518110151561260b57fe5b9060200101907effffffffffffffffffffffffffffffffffffffffffffffffffffffffffffff1916908160001a9053508080600101915050612595565b600090505b845181101561270057848181518110151561266457fe5b9060200101517f010000000000000000000000000000000000000000000000000000000000000090047f01000000000000000000000000000000000000000000000000000000000000000283838060010194508151811015156126c357fe5b9060200101907effffffffffffffffffffffffffffffffffffffffffffffffffffffffffffff1916908160001a905350808060010191505061264d565b82995050505050505050505095945050505050565b60008060048361ffff1681151561272857fe5b0661ffff1614151561273d5760009050612791565b600060648361ffff1681151561274f57fe5b0661ffff161415156127645760019050612791565b60006101908361ffff1681151561277757fe5b0661ffff1614151561278c5760009050612791565b600190505b919050565b828054600181600116156101000203166002900490600052602060002090601f016020900481019282601f106127d757805160ff1916838001178555612805565b82800160010185558215612805579182015b828111156128045782518255916020019190600101906127e9565b5b509050612812919061286a565b5090565b60e060405190810160405280600061ffff168152602001600060ff168152602001600060ff168152602001600060ff168152602001600060ff168152602001600060ff168152602001600060ff1681525090565b61288c91905b80821115612888576000816000905550600101612870565b5090565b905600a165627a7a72305820f55d27f04b0e94da4257aaefdcc3d1233e67ae4dc7cc3b50b5d3ae337a9d76280029",
  "source": "\n// adapted from github.com/Azure-Samples/blockchain-devkit/blob/master/accelerators\n// adapted by Alexandria Pawlik, June 2019\n\n// version contains address-type parameters\n\n\npragma solidity ^0.4.24;\n\n// interface\nimport \"./interfaces/IFile.sol\";\n\n\n// FILE CONTRACT\n/////////////////////////////////////////////////////////////////\n\n\ncontract File is IFile\n{\n  ///////////////// public data\n\n\n\tenum StateType { Original, Active, Deleted }\n\tStateType public State;\n\n  string public RegistryName;  // name of the registry that the file is located in\t\n\n  string public FileName;  // name of the file in OneDrive\n  string public FileId; // identifier for the file in OneDrive, stored off chain\n  string public ContentType; // \n  string public Etag; // \n  string public UploadDateTime; // MM/DD/YY HH:MM:SS\n  string public NumberReceipts;  // NumReceipts as string\n\n\n  ///////////////// internal data\n\n\n  uint internal NumReceipts; // number of times file has been verified, length of history array\n  string internal FileHash; // sha256 hash of original file content\n\tstring internal MetadataHash; // sha256 hash of original file metadata\n\n  // parent registry\n\tFileRegistry internal MyFileRegistry;\n\taddress internal RegistryAddress;\n\n\tstruct ReceiptStruct \n\t{ \n\t\taddress ReceiptContractAddress;\n\t\tstring VerificationDateTime;\n\t\tuint Index;\n\t}\n\n\t// history lookup\n\tmapping(address => ReceiptStruct) internal HistoryAddressLookup;\n\taddress[] internal ReceiptAddressIndex;\n\tmapping(string => ReceiptStruct) internal HistoryDTLookup;\n\tstring[] internal VerificationDateTimeIndex;\n  \n\n  /////////////////\n\n\n\tconstructor (address registryAddress, string filename, string fileId, string fileHash, \n\t\tstring metadataHash, string contentType, string etag) \n\tpublic\n\t{\n\t\t// file data\n\t\tFileName = filename;\n    FileId = fileId;\n    FileHash = fileHash;\n    MetadataHash = metadataHash;\n    ContentType = contentType;\n    Etag = etag;\n    UploadDateTime = dtToString(parseTimestamp());\n\n\t\t// tracking\n\t\tNumReceipts = 0;\n    NumberReceipts = \"0\";\n\n\t\t// registry\n\t\tRegistryAddress = registryAddress;\n\t\tMyFileRegistry = FileRegistry(RegistryAddress);\n    RegistryName = MyFileRegistry.Name();\n\n\t\t// if file id is already registered\n\t\t//if (MyFileRegistry.IsRegisteredFileId(stringToBytes32(FileId))) revert(\"A file with this id has already been registered.\");\n\t\trequire(!MyFileRegistry.IsRegisteredFileId(FileId), \"A file with this id has already been registered.\");\n\n\t\t// register file\n    MyFileRegistry.RegisterFile(address(this), FileId);\n   \n    State = StateType.Original;\n\t}\n\n\n  ///////////////// accessible by blockchain users\n\n\n  function Delete() \n  external \n  {\n    State = StateType.Deleted;\n  }\n\n  // allows workbench users to refresh displayed data\n  function Update()\n  external \n\tpure {}\n\n\n  ///////////////// called by members of receipt array\n\n\n\t// create a new verification receipt for this file\n\tfunction AddReceipt(address ReceiptContractAddress) \n  external\n\treturns (string ReceiptDT)\n  {\n\t\t// return date and time of receipt creation\n\t\tReceiptDT = dtToString(parseTimestamp());\n\n\t\t// check that file is still in use\n\t\t// if (State == StateType.Deleted) revert(\"Receipt cannot be created for a deleted file.\");\n\t\t// if (IsVerifiedReceiptContractAddress(ReceiptContractAddress)) revert(\"This contract address cannot be registered to a second receipt.\"); \n\t\trequire(State != StateType.Deleted, \"Receipt cannot be created for a deleted file.\");\n\t\trequire(!IsVerifiedReceiptContractAddress(ReceiptContractAddress), \"This contract address cannot be registered to a second receipt.\");\n\n\t\t// add address lookups\n    HistoryAddressLookup[ReceiptContractAddress].ReceiptContractAddress = ReceiptContractAddress;\n    HistoryAddressLookup[ReceiptContractAddress].VerificationDateTime = ReceiptDT;\n    HistoryAddressLookup[ReceiptContractAddress].Index = ReceiptAddressIndex.push(ReceiptContractAddress)-1;\n   \n\t\t// add datetime lookups \n    HistoryDTLookup[ReceiptDT].ReceiptContractAddress = ReceiptContractAddress;\n    HistoryDTLookup[ReceiptDT].VerificationDateTime = ReceiptDT;\n    HistoryDTLookup[ReceiptDT].Index = VerificationDateTimeIndex.push(ReceiptDT)-1;\n\n\t\t// increase total number of receipts\n\t\t++NumReceipts;\n    NumberReceipts = uintToString(NumReceipts);\n\n    // check if this was the first verification\n\t\tif (State != StateType.Active) State = StateType.Active;\n  }\n\n\t// gets the verification date and time of the reciept at the given index\n\tfunction GetReceiptDTAtIndex(uint idx)\n\texternal\n\tview\n\treturns (string at)\n\t{\n\t\t// check bounds\n\t\trequire(idx < NumReceipts, \"Index passed to GetReceiptDTAtIndex is too large.\");\n\n\t\tat = VerificationDateTimeIndex[idx];\n\t}\n\n\t// gets the address of the receipt contract that is in \n\t// the history lookup arrays one index before idx\n\t// does NOT ignore invalidated receipts\n\t// requires idx > 0\n\tfunction GetReceiptAddressBefore(uint idx)\n\texternal\n\tview\n\treturns (address last)\n\t{\n\t\t// check lower bound\n\t\trequire(idx > 0, \"Index passed to GetReceiptAddressBefore is too small.\");\n\n\t\tlast = GetReceiptAddressAtIndex(idx - 1);\n\t}\n\n\t// gets the address of the receipt at the given index\n\t// does NOT ignore invalidated receipts\n\tfunction GetReceiptAddressAtIndex(uint idx)\n\tpublic\n\tview\n\treturns (address at)\n\t{\n\t\t// check upper bound (lower bound is certain with uint data type)\n\t\trequire(idx < NumReceipts, \"Index passed to GetReceiptAddressAtIndex is too large.\");\n\n\t\tat = ReceiptAddressIndex[idx];\n\t}\n\n\t// get function for internal variable\n\tfunction GetNumberOfReceipts() \n\texternal\n\tview\n\treturns (uint)\n\t{\n\t\treturn NumReceipts;\n\t}\n\n\t// get function for internal variable\n\tfunction GetFileHash()\n\texternal\n\tview\n\treturns (string)\n\t{\n\t\treturn FileHash;\n\t}\n\n\t// get function for internal variable\n\tfunction GetMetadataHash()\n\texternal\n\tview\n\treturns (string)\n\t{\n\t\treturn MetadataHash;\n\t}\n\n\n\t///////////////// get functions for testing\n\n\n\tfunction GetIndexOfReceipt(address receipt)\n  external\n  view\n  returns (uint idx)\n  {\n    idx = HistoryAddressLookup[receipt].Index;\n  }\n\n\tfunction GetAddress()\n\texternal\n\tview\n\treturns (address)\n\t{\n\t\treturn address(this);\n\t}\n\n\tfunction NotDeleted()\n\texternal\n\tview\n\treturns (bool)\n\t{\n\t\treturn (State != StateType.Deleted);\n\t}\n\n\n  ///////////////// helper functions\n\n\n\t// lookup to see if a contract address for a receipt contract is already registered\n  function IsVerifiedReceiptContractAddress(address ReceiptContractAddress)\n  internal \n  view\n  returns(bool isVerified) \n  {\n    if(ReceiptAddressIndex.length == 0) return false;\n  \n    return (ReceiptAddressIndex[HistoryAddressLookup[ReceiptContractAddress].Index] \n\t\t\t== ReceiptContractAddress);\n  }\n\n\tfunction stringToBytes32(string memory source) \n  internal \n  pure \n  returns(bytes32 result) \n  {\n    bytes memory tempEmptyStringTest = bytes(source);\n    if (tempEmptyStringTest.length == 0) \n    {\n      return 0x0;\n    }\n\n    assembly \n    {\n      result := mload(add(source, 32))\n    }\n  }\n\n\tfunction compareStrings(string a, string b) \n  internal \n  pure \n  returns(bool)\n  {\n    return keccak256(bytes(a)) == keccak256(bytes(b));\n  }\n\n  function stringToAddress(string _a) \n  internal \n  pure \n  returns(address)\n  {\n    bytes memory tmp = bytes(_a);\n    uint160 iaddr = 0;\n    uint160 b1;\n    uint160 b2;\n    \n    for (uint i=2; i<2+2*20; i+=2)\n    {\n      iaddr *= 256;\n      b1 = uint160(tmp[i]);\n      b2 = uint160(tmp[i+1]);\n      if ((b1 >= 97)&&(b1 <= 102)) b1 -= 87;\n      else if ((b1 >= 48)&&(b1 <= 57)) b1 -= 48;\n      if ((b2 >= 97)&&(b2 <= 102)) b2 -= 87;\n      else if ((b2 >= 48)&&(b2 <= 57)) b2 -= 48;\n      iaddr += (b1*16+b2);\n    }\n\n    return address(iaddr);\n  }\n\n\n  //-----------------------------------------------------\n  // Type Manipulation Supporting Functions\n  // adapted from github.com/oraclize/ethereum-api\n  //-----------------------------------------------------\n\n\n  function uintToString(uint i) \n  internal \n  pure \n  returns (string)\n  {\n    if (i == 0) return \"0\";\n\n    uint j = i;\n    uint length;\n    while (j != 0)\n    {\n      length++;\n      j /= 10;\n    }\n\n    bytes memory bstr = new bytes(length);\n    uint k = length - 1;\n    while (i != 0)\n    {\n      bstr[k--] = byte(48 + i % 10);\n      i /= 10;\n    }\n\n    return string(bstr);\n  }\n\n  function strConcat(string _a, string _b, string _c, string _d, string _e) \n  internal \n  pure\n  returns (string)\n  {\n    bytes memory _ba = bytes(_a);\n    bytes memory _bb = bytes(_b);\n    bytes memory _bc = bytes(_c);\n    bytes memory _bd = bytes(_d);\n    bytes memory _be = bytes(_e);\n\n    string memory abcde = new string(_ba.length + _bb.length + _bc.length + _bd.length + _be.length);\n    bytes memory babcde = bytes(abcde);\n\n    uint k = 0;\n\n    for (uint i = 0; i < _ba.length; i++) babcde[k++] = _ba[i];\n    for (i = 0; i < _bb.length; i++) babcde[k++] = _bb[i];\n    for (i = 0; i < _bc.length; i++) babcde[k++] = _bc[i];\n    for (i = 0; i < _bd.length; i++) babcde[k++] = _bd[i];\n    for (i = 0; i < _be.length; i++) babcde[k++] = _be[i];\n    \n    return string(babcde);\n  }\n\n\n  //-----------------------------------------------------\n  // DateTime Supporting Functions\n  // adapted from github.com/pipermerriam/ethereum-datetime/blob/master/contracts/DateTime.sol\n  //-----------------------------------------------------\n\n\n  uint constant DAY_IN_SECONDS = 86400;\n  uint constant YEAR_IN_SECONDS = 31536000;\n  uint constant LEAP_YEAR_IN_SECONDS = 31622400;\n\n  uint16 constant ORIGIN_YEAR = 1970;\n\n  struct _datetime \n  {\n    uint16 year;\n    uint8 year2;\n    uint8 month;\n    uint8 day;\n    uint8 hour;\n    uint8 minute;\n    uint8 second;\n  }\n\n  // returns current timestamp as string in form MM/DD/YY HH:MM:SS\n  function parseTimestamp() \n  internal \n  view \n  returns (_datetime dt) \n  {\n    uint timestamp = now;\n    uint secondsAccountedFor = 0;\n    uint buf;\n\n    uint8 i;\n\n    // Year\n    dt.year = getYear(timestamp);\n    buf = leapYearsBefore(dt.year) - leapYearsBefore(ORIGIN_YEAR);\n\n    secondsAccountedFor += LEAP_YEAR_IN_SECONDS * buf;\n    secondsAccountedFor += YEAR_IN_SECONDS * (dt.year - ORIGIN_YEAR - buf);\n    dt.year2 = uint8(dt.year % 100);\n\n    // Month\n    uint secondsInMonth;\n    for (i = 1; i <= 12; i++) \n    {\n      secondsInMonth = DAY_IN_SECONDS * getDaysInMonth(i, dt.year);\n      if (secondsInMonth + secondsAccountedFor > timestamp) \n      {\n        dt.month = i;\n        break;\n      }\n      secondsAccountedFor += secondsInMonth;\n    }\n\n    // Day\n    for (i = 1; i <= getDaysInMonth(dt.month, dt.year); i++) \n    {\n      if (DAY_IN_SECONDS + secondsAccountedFor > timestamp) \n      {\n        dt.day = i;\n        break;\n      }\n      secondsAccountedFor += DAY_IN_SECONDS;\n    }\n\n    // Hour\n    dt.hour = uint8((timestamp / 60 / 60) % 24);\n\n    // Minute\n    dt.minute = uint8((timestamp / 60) % 60);\n\n    // Second\n    dt.second = uint8(timestamp % 60);\n  }\n\n  function dtToString(_datetime dt)\n  internal\n  pure\n  returns (string datetime)\n  {\n    string memory hourStr;\n    string memory minuteStr;\n    string memory secondStr;\n    string memory monthStr;\n    string memory dayStr;\n\n    // add filler 0s\n    if (dt.month < 10)\n    {\n      monthStr = strConcat(\"0\", uintToString(dt.month), \"\",\"\", \"\");\n    } else\n    {\n      monthStr = uintToString(dt.month);\n    }\n    if (dt.day < 10)\n    {\n      dayStr = strConcat(\"0\", uintToString(dt.day), \"\",\"\", \"\");\n    } else\n    {\n      dayStr = uintToString(dt.day);\n    }\n    if (dt.hour < 10)\n    {\n      hourStr = strConcat(\"0\", uintToString(dt.hour), \"\",\"\", \"\");\n    } else\n    {\n      hourStr = uintToString(dt.hour);\n    }\n    if (dt.minute < 10)\n    {\n      minuteStr = strConcat(\"0\", uintToString(dt.minute), \"\",\"\", \"\");\n    } else\n    {\n      minuteStr = uintToString(dt.minute);\n    }\n    if (dt.second < 10)\n    {\n      secondStr = strConcat(\"0\", uintToString(dt.second), \"\",\"\", \"\");\n    } else\n    {\n      secondStr = uintToString(dt.second);\n    }\n\n    // convert struct to string\n    datetime = strConcat(\n      strConcat(monthStr, \"/\", dayStr, \"/\", uintToString(dt.year2)), \n      \" \", \n      strConcat(hourStr, \":\", minuteStr, \":\", secondStr), \n      \"\", \"\"\n    );\n  }\n\n  function isLeapYear(uint16 year) \n  internal\n  pure\n  returns (bool) \n  {\n    if (year % 4 != 0) \n    {\n      return false;\n    }\n    if (year % 100 != 0) \n    {\n      return true;\n    }\n    if (year % 400 != 0) \n    {\n      return false;\n    }\n    return true;\n  }\n\n  function leapYearsBefore(uint year) \n  internal \n  pure \n  returns (uint) \n  {\n    year -= 1;\n    return year / 4 - year / 100 + year / 400;\n  }\n\n  function getDaysInMonth(uint8 month, uint16 year) \n  internal\n  pure \n  returns (uint8) \n  {\n    if (month == 1 || month == 3 || month == 5 || month == 7 || month == 8 || month == 10 || month == 12) \n    {\n      return 31;\n    } else if (month == 4 || month == 6 || month == 9 || month == 11) \n    {\n      return 30;\n    } else if (isLeapYear(year)) \n    {\n      return 29;\n    } else \n    {\n      return 28;\n    }\n  }\n\n  function getYear(uint timestamp) \n  internal\n  pure \n  returns (uint16) \n  {\n    uint secondsAccountedFor = 0;\n    uint16 year;\n    uint numLeapYears;\n\n    // Year\n    year = uint16(ORIGIN_YEAR + timestamp / YEAR_IN_SECONDS);\n    numLeapYears = leapYearsBefore(year) - leapYearsBefore(ORIGIN_YEAR);\n\n    secondsAccountedFor += LEAP_YEAR_IN_SECONDS * numLeapYears;\n    secondsAccountedFor += YEAR_IN_SECONDS * (year - ORIGIN_YEAR - numLeapYears);\n\n    while (secondsAccountedFor > timestamp) \n    {\n      if (isLeapYear(uint16(year - 1))) \n      {\n        secondsAccountedFor -= LEAP_YEAR_IN_SECONDS;\n      } else \n      {\n        secondsAccountedFor -= YEAR_IN_SECONDS;\n      }\n      year -= 1;\n    }\n    return year;\n  } \n\n}",
  "sourcePath": "/Users/alexandriapawlik/Documents/Dev/AFGroup/fileVerificationContracts/contracts/File.sol",
  "compiler": {
    "name": "solc",
    "version": "0.4.24+commit.e67f0147.Emscripten.clang"
  },
  "schemaVersion": "3.0.10",
  "updatedAt": "2019-06-20T13:10:53.206Z",
  "devdoc": {
    "methods": {}
  },
  "userdoc": {
    "methods": {
      "AddReceipt(address)": {
        "notice": "////////////// called by members of receipt array"
      },
      "Delete()": {
        "notice": "////////////// accessible by blockchain users"
      },
      "GetIndexOfReceipt(address)": {
        "notice": "////////////// get functions for testing"
      }
    }
  }
}