{
  "contractName": "FileRegistry",
  "abi": [
    {
      "constant": true,
      "inputs": [],
      "name": "Name",
      "outputs": [
        {
          "name": "",
          "type": "string"
        }
      ],
      "payable": false,
      "stateMutability": "view",
      "type": "function"
    },
    {
      "constant": true,
      "inputs": [],
      "name": "Description",
      "outputs": [
        {
          "name": "",
          "type": "string"
        }
      ],
      "payable": false,
      "stateMutability": "view",
      "type": "function"
    },
    {
      "constant": true,
      "inputs": [],
      "name": "State",
      "outputs": [
        {
          "name": "",
          "type": "uint8"
        }
      ],
      "payable": false,
      "stateMutability": "view",
      "type": "function"
    },
    {
      "inputs": [
        {
          "name": "name",
          "type": "string"
        },
        {
          "name": "description",
          "type": "string"
        }
      ],
      "payable": false,
      "stateMutability": "nonpayable",
      "type": "constructor"
    },
    {
      "constant": false,
      "inputs": [],
      "name": "CloseRegistry",
      "outputs": [],
      "payable": false,
      "stateMutability": "nonpayable",
      "type": "function"
    },
    {
      "constant": false,
      "inputs": [
        {
          "name": "FileContractAddress",
          "type": "address"
        },
        {
          "name": "FileId",
          "type": "string"
        }
      ],
      "name": "RegisterFile",
      "outputs": [],
      "payable": false,
      "stateMutability": "nonpayable",
      "type": "function"
    },
    {
      "constant": true,
      "inputs": [
        {
          "name": "FileId",
          "type": "string"
        }
      ],
      "name": "IsRegisteredFileId",
      "outputs": [
        {
          "name": "isRegistered",
          "type": "bool"
        }
      ],
      "payable": false,
      "stateMutability": "view",
      "type": "function"
    },
    {
      "constant": true,
      "inputs": [
        {
          "name": "index",
          "type": "uint256"
        }
      ],
      "name": "GetFileIdAtIndex",
      "outputs": [
        {
          "name": "",
          "type": "string"
        }
      ],
      "payable": false,
      "stateMutability": "view",
      "type": "function"
    },
    {
      "constant": true,
      "inputs": [
        {
          "name": "index",
          "type": "uint256"
        }
      ],
      "name": "GetFileAddressAtIndex",
      "outputs": [
        {
          "name": "",
          "type": "address"
        }
      ],
      "payable": false,
      "stateMutability": "view",
      "type": "function"
    },
    {
      "constant": true,
      "inputs": [],
      "name": "GetNumberOfFiles",
      "outputs": [
        {
          "name": "",
          "type": "uint256"
        }
      ],
      "payable": false,
      "stateMutability": "view",
      "type": "function"
    },
    {
      "constant": true,
      "inputs": [],
      "name": "GetAddress",
      "outputs": [
        {
          "name": "",
          "type": "address"
        }
      ],
      "payable": false,
      "stateMutability": "view",
      "type": "function"
    },
    {
      "constant": true,
      "inputs": [],
      "name": "IsOpen",
      "outputs": [
        {
          "name": "",
          "type": "bool"
        }
      ],
      "payable": false,
      "stateMutability": "view",
      "type": "function"
    },
    {
      "constant": true,
      "inputs": [
        {
          "name": "fileid",
          "type": "string"
        }
      ],
      "name": "GetFileAddressGivenId",
      "outputs": [
        {
          "name": "",
          "type": "address"
        }
      ],
      "payable": false,
      "stateMutability": "view",
      "type": "function"
    }
  ],
  "bytecode": "0x60806040523480156200001157600080fd5b50604051620012eb380380620012eb83398101806040528101908080518201929190602001805182019291905050508160019080519060200190620000589291906200009e565b508060029080519060200190620000719291906200009e565b5060008060006101000a81548160ff021916908360018111156200009157fe5b021790555050506200014d565b828054600181600116156101000203166002900490600052602060002090601f016020900481019282601f10620000e157805160ff191683800117855562000112565b8280016001018555821562000112579182015b8281111562000111578251825591602001919060010190620000f4565b5b50905062000121919062000125565b5090565b6200014a91905b80821115620001465760008160009055506001016200012c565b5090565b90565b61118e806200015d6000396000f3006080604052600436106100ba576000357c0100000000000000000000000000000000000000000000000000000000900463ffffffff16806313027c96146100bf5780631b342b1b1461016857806329d99ba1146101935780632aa010691461021c578063346de76d146102c25780633accf2781461034357806379fa2103146103b05780638052474d146103df5780638191745f1461046f5780638220dd21146104ff578063f109522214610516578063f1b6dccd1461056d575b600080fd5b3480156100cb57600080fd5b50610126600480360381019080803590602001908201803590602001908080601f01602080910402602001604051908101604052809392919081815260200183838082843782019150505050505091929192905050506105a6565b604051808273ffffffffffffffffffffffffffffffffffffffff1673ffffffffffffffffffffffffffffffffffffffff16815260200191505060405180910390f35b34801561017457600080fd5b5061017d61063e565b6040518082815260200191505060405180910390f35b34801561019f57600080fd5b5061021a600480360381019080803573ffffffffffffffffffffffffffffffffffffffff169060200190929190803590602001908201803590602001908080601f016020809104026020016040519081016040528093929190818152602001838380828437820191505050505050919291929050505061064b565b005b34801561022857600080fd5b5061024760048036038101908080359060200190929190505050610b1e565b6040518080602001828103825283818151815260200191508051906020019080838360005b8381101561028757808201518184015260208101905061026c565b50505050905090810190601f1680156102b45780820380516001836020036101000a031916815260200191505b509250505060405180910390f35b3480156102ce57600080fd5b50610329600480360381019080803590602001908201803590602001908080601f0160208091040260200160405190810160405280939291908181526020018383808284378201915050505050509192919290505050610bd9565b604051808215151515815260200191505060405180910390f35b34801561034f57600080fd5b5061036e60048036038101908080359060200190929190505050610d2e565b604051808273ffffffffffffffffffffffffffffffffffffffff1673ffffffffffffffffffffffffffffffffffffffff16815260200191505060405180910390f35b3480156103bc57600080fd5b506103c5610d71565b604051808215151515815260200191505060405180910390f35b3480156103eb57600080fd5b506103f4610d9f565b6040518080602001828103825283818151815260200191508051906020019080838360005b83811015610434578082015181840152602081019050610419565b50505050905090810190601f1680156104615780820380516001836020036101000a031916815260200191505b509250505060405180910390f35b34801561047b57600080fd5b50610484610e3d565b6040518080602001828103825283818151815260200191508051906020019080838360005b838110156104c45780820151818401526020810190506104a9565b50505050905090810190601f1680156104f15780820380516001836020036101000a031916815260200191505b509250505060405180910390f35b34801561050b57600080fd5b50610514610edb565b005b34801561052257600080fd5b5061052b610f00565b604051808273ffffffffffffffffffffffffffffffffffffffff1673ffffffffffffffffffffffffffffffffffffffff16815260200191505060405180910390f35b34801561057957600080fd5b50610582610f08565b6040518082600181111561059257fe5b60ff16815260200191505060405180910390f35b60006004826040518082805190602001908083835b6020831015156105e057805182526020820191506020810190506020830392506105bb565b6001836020036101000a038019825116818451168082178552505050505050905001915050908152602001604051809103902060000160009054906101000a900473ffffffffffffffffffffffffffffffffffffffff169050919050565b6000600680549050905090565b6000600181111561065857fe5b6000809054906101000a900460ff16600181111561067257fe5b14151561070d576040517f08c379a00000000000000000000000000000000000000000000000000000000081526004018080602001828103825260348152602001807f46696c652063616e6e6f7420626520616464656420746f20612072656769737481526020017f72792074686174206973206e6f74206f70656e2e00000000000000000000000081525060400191505060405180910390fd5b61071682610f1a565b1515156107b1576040517f08c379a000000000000000000000000000000000000000000000000000000000815260040180806020018281038252603c8152602001807f5468697320636f6e747261637420616464726573732063616e6e6f742062652081526020017f7265676973746572656420746f2061207365636f6e642066696c652e0000000081525060400191505060405180910390fd5b81600560008473ffffffffffffffffffffffffffffffffffffffff1673ffffffffffffffffffffffffffffffffffffffff16815260200190815260200160002060000160006101000a81548173ffffffffffffffffffffffffffffffffffffffff021916908373ffffffffffffffffffffffffffffffffffffffff16021790555080600560008473ffffffffffffffffffffffffffffffffffffffff1673ffffffffffffffffffffffffffffffffffffffff16815260200190815260200160002060010190805190602001906108889291906110bd565b50600160068390806001815401808255809150509060018203906000526020600020016000909192909190916101000a81548173ffffffffffffffffffffffffffffffffffffffff021916908373ffffffffffffffffffffffffffffffffffffffff16021790555003600560008473ffffffffffffffffffffffffffffffffffffffff1673ffffffffffffffffffffffffffffffffffffffff16815260200190815260200160002060020181905550816004826040518082805190602001908083835b602083101515610970578051825260208201915060208101905060208303925061094b565b6001836020036101000a038019825116818451168082178552505050505050905001915050908152602001604051809103902060000160006101000a81548173ffffffffffffffffffffffffffffffffffffffff021916908373ffffffffffffffffffffffffffffffffffffffff160217905550806004826040518082805190602001908083835b602083101515610a1d57805182526020820191506020810190506020830392506109f8565b6001836020036101000a03801982511681845116808217855250505050505090500191505090815260200160405180910390206001019080519060200190610a669291906110bd565b5060016007829080600181540180825580915050906001820390600052602060002001600090919290919091509080519060200190610aa69291906110bd565b50036004826040518082805190602001908083835b602083101515610ae05780518252602082019150602081019050602083039250610abb565b6001836020036101000a0380198251168184511680821785525050505050509050019150509081526020016040518091039020600201819055505050565b6060600782815481101515610b2f57fe5b906000526020600020018054600181600116156101000203166002900480601f016020809104026020016040519081016040528092919081815260200182805460018160011615610100020316600290048015610bcd5780601f10610ba257610100808354040283529160200191610bcd565b820191906000526020600020905b815481529060010190602001808311610bb057829003601f168201915b50505050509050919050565b600060608060006007805490501415610bf55760009250610d27565b83915060076004836040518082805190602001908083835b602083101515610c325780518252602082019150602081019050602083039250610c0d565b6001836020036101000a038019825116818451168082178552505050505050905001915050908152602001604051809103902060020154815481101515610c7557fe5b906000526020600020018054600181600116156101000203166002900480601f016020809104026020016040519081016040528092919081815260200182805460018160011615610100020316600290048015610d135780601f10610ce857610100808354040283529160200191610d13565b820191906000526020600020905b815481529060010190602001808311610cf657829003601f168201915b50505050509050610d248183610fe4565b92505b5050919050565b6000600682815481101515610d3f57fe5b9060005260206000200160009054906101000a900473ffffffffffffffffffffffffffffffffffffffff169050919050565b6000806001811115610d7f57fe5b6000809054906101000a900460ff166001811115610d9957fe5b14905090565b60018054600181600116156101000203166002900480601f016020809104026020016040519081016040528092919081815260200182805460018160011615610100020316600290048015610e355780601f10610e0a57610100808354040283529160200191610e35565b820191906000526020600020905b815481529060010190602001808311610e1857829003601f168201915b505050505081565b60028054600181600116156101000203166002900480601f016020809104026020016040519081016040528092919081815260200182805460018160011615610100020316600290048015610ed35780601f10610ea857610100808354040283529160200191610ed3565b820191906000526020600020905b815481529060010190602001808311610eb657829003601f168201915b505050505081565b60016000806101000a81548160ff02191690836001811115610ef957fe5b0217905550565b600030905090565b6000809054906101000a900460ff1681565b6000806006805490501415610f325760009050610fdf565b8173ffffffffffffffffffffffffffffffffffffffff166006600560008573ffffffffffffffffffffffffffffffffffffffff1673ffffffffffffffffffffffffffffffffffffffff16815260200190815260200160002060020154815481101515610f9a57fe5b9060005260206000200160009054906101000a900473ffffffffffffffffffffffffffffffffffffffff1673ffffffffffffffffffffffffffffffffffffffff161490505b919050565b6000816040518082805190602001908083835b60208310151561101c5780518252602082019150602081019050602083039250610ff7565b6001836020036101000a038019825116818451168082178552505050505050905001915050604051809103902060001916836040518082805190602001908083835b602083101515611083578051825260208201915060208101905060208303925061105e565b6001836020036101000a03801982511681845116808217855250505050505090500191505060405180910390206000191614905092915050565b828054600181600116156101000203166002900490600052602060002090601f016020900481019282601f106110fe57805160ff191683800117855561112c565b8280016001018555821561112c579182015b8281111561112b578251825591602001919060010190611110565b5b509050611139919061113d565b5090565b61115f91905b8082111561115b576000816000905550600101611143565b5090565b905600a165627a7a72305820e5108022f2eb269806c0e2755a99b223a234d79f129055e263be543c52a0a1300029",
  "source": "\n// adapted from github.com/Azure-Samples/blockchain-devkit/blob/master/accelerators\n// adapted by Alexandria Pawlik, June 2019\n\n// version contains address-type parameters\n\n\npragma solidity ^0.4.24;\n\n// interface\nimport \"./AFileRegistry.sol\";\n\n\n// FILE REGISTRY CONTRACT\n/////////////////////////////////////////////////////////////////\n\n\ncontract FileRegistry is AFileRegistry\n{\n\t///////////////// public data\n\n\n\tenum StateType { Open, Closed }\n\tStateType public State;\n\n  string public Name;\n\tstring public Description;\n\n\n  ///////////////// internal data\n\n\n\tFileStruct[] internal Files;\n\n\tstruct FileStruct \n\t{ \n\t\taddress FileContractAddress;\n\t\tstring FileId; \n\t\tuint Index;\n\t}\n\n\t// file tracking\n\tmapping(string => FileStruct) internal FileIdLookup;\n  mapping(address => FileStruct) internal FileContractAddressLookup;\n\taddress[] internal FileAddressIndex;\n\tstring[] internal FileIdIndex;\n\n\n  /////////////////\n\n\n\tconstructor (string name, string description) \n\tpublic\n\t{\n\t\tName = name;\n\t\tDescription = description;\n\t\tState = StateType.Open;\n\t}\n\n\n  ///////////////// accessible by blockchain users\n\n\n\tfunction CloseRegistry() \n\tpublic \n\t{\n\t\tState = StateType.Closed;\n\t}\n\n\n  ///////////////// called by members of file array\n\n\n  function RegisterFile(address FileContractAddress, string FileId) \n\tpublic\n\t{\n\t\t// if (State != StateType.Open) revert(\"File cannot be added to a registry that is not open.\");\n\t\t// if (IsRegisteredFileContractAddress(FileContractAddress)) revert(\"This contract address cannot be registered to a second file.\"); \n\t\trequire(State == StateType.Open, \"File cannot be added to a registry that is not open.\");\n\t\trequire(!IsRegisteredFileContractAddress(FileContractAddress), \"This contract address cannot be registered to a second file.\");\n\n\t\t// add lookup by address\n\t\tFileContractAddressLookup[FileContractAddress].FileContractAddress = FileContractAddress;\n\t\tFileContractAddressLookup[FileContractAddress].FileId = FileId;\n\t\tFileContractAddressLookup[FileContractAddress].Index = FileAddressIndex.push(FileContractAddress)-1;\n\n\t\t// add look up by reg number\n\t\tFileIdLookup[FileId].FileContractAddress = FileContractAddress;\n\t\tFileIdLookup[FileId].FileId = FileId;\n\t\tFileIdLookup[FileId].Index = FileIdIndex.push(FileId)-1;\n\t}\n\n  // // lookup to see if this file is registered\n\t// function IsRegisteredFileId(bytes32 FileId)\n\t// public \n\t// view\n\t// returns(bool isRegistered) \n\t// {\n\t// \tif(FileIdIndex.length == 0) return false;\n\n\t// \tstring memory FileIdString = bytes32ToString(FileId);\n\t// \tstring memory FileIdInternalString = FileIdIndex[FileIdLookup[FileIdString].Index];\n\n\t// \treturn (compareStrings(FileIdInternalString, FileIdString));\n\t// }\n\n  // lookup to see if this file is registered\n\tfunction IsRegisteredFileId(string FileId)\n\tpublic \n\tview\n\treturns(bool isRegistered) \n\t{\n\t\tif(FileIdIndex.length == 0) return false;\n\n\t\tstring memory FileIdString = FileId;\n\t\tstring memory FileIdInternalString = FileIdIndex[FileIdLookup[FileIdString].Index];\n\n\t\treturn (compareStrings(FileIdInternalString, FileIdString));\n\t}\n\n\n\t///////////////// get functions for testing\n\n\n  function GetFileIdAtIndex(uint index)\n\tpublic\n\tview\n\treturns (string)\n\t{\n\t\treturn FileIdIndex[index];\n\t}\n\n\tfunction GetFileAddressAtIndex(uint index)\n\tpublic\n\tview\n\treturns (address)\n\t{\n\t\treturn FileAddressIndex[index];\n\t}\n\n\tfunction GetNumberOfFiles()\n\tpublic\n\tview\n\treturns (uint)\n\t{\n\t\treturn FileAddressIndex.length;\n\t}\n\n\tfunction GetAddress()\n\tpublic\n\tview\n\treturns (address)\n\t{\n\t\treturn address(this);\n\t}\n\n\tfunction IsOpen()\n\tpublic\n\tview\n\treturns (bool)\n\t{\n\t\treturn (State == StateType.Open);\n\t}\n\n\n  ///////////////// called by receipts\n\n\n  function GetFileAddressGivenId(string fileid)\n  public\n  view\n  returns (address)\n  {\n    return FileIdLookup[fileid].FileContractAddress;\n  }\n\n\n  ///////////////// helper functions\n\n\n\t// lookup to see if a contract address for a File contract is already registered\n\tfunction IsRegisteredFileContractAddress(address FileContractAddress)\n\tinternal\n\tview\n\treturns(bool isRegistered) \n\t{\n\t\tif(FileAddressIndex.length == 0) return false;\n\t\t\t\n\t\treturn (FileAddressIndex[FileContractAddressLookup[FileContractAddress].Index] == FileContractAddress);\n\t}\n\n\tfunction bytes32ToString(bytes32 x)  \n\tinternal \n\tpure \n\treturns(string) \n\t{\n\t\tbytes memory bytesString = new bytes(32);\n\t\tuint charCount = 0;\n\t\tfor (uint j = 0; j < 32; j++) \n\t\t{\n\t\t\tbyte char = byte(bytes32(uint(x) * 2 ** (8 * j)));\n\t\t\tif (char != 0) \n\t\t\t{\n\t\t\t\tbytesString[charCount] = char;\n\t\t\t\tcharCount++;\n\t\t\t}\n\t\t}\n\n\t\tbytes memory bytesStringTrimmed = new bytes(charCount);\n\t\tfor (j = 0; j < charCount; j++) \n\t\t{\n\t\t\tbytesStringTrimmed[j] = bytesString[j];\n\t\t}\n\n\t\treturn string(bytesStringTrimmed);  \n\t}\n\n\tfunction compareStrings(string a, string b) \n\tinternal \n\tpure \n\treturns(bool)\n\t{\n\t\treturn keccak256(bytes(a)) == keccak256(bytes(b));\n\t}\n}",
  "sourcePath": "/Users/alexandriapawlik/Documents/Dev/AFGroup/fileVerificationContracts/contracts/FileRegistry.sol",
  "compiler": {
    "name": "solc",
    "version": "0.4.24+commit.e67f0147.Emscripten.clang"
  },
  "schemaVersion": "3.0.10",
  "updatedAt": "2019-06-17T18:14:35.170Z",
  "devdoc": {
    "methods": {}
  },
  "userdoc": {
    "methods": {
      "CloseRegistry()": {
        "notice": "////////////// accessible by blockchain users"
      },
      "GetFileAddressGivenId(string)": {
        "notice": "////////////// called by receipts"
      },
      "GetFileIdAtIndex(uint256)": {
        "notice": "////////////// get functions for testing"
      },
      "RegisterFile(address,string)": {
        "notice": "////////////// called by members of file array"
      }
    }
  }
}