{
  "contractName": "Receipt",
  "abi": [
    {
      "constant": true,
      "inputs": [],
      "name": "VerificationDateTime",
      "outputs": [
        {
          "name": "",
          "type": "string"
        }
      ],
      "payable": false,
      "stateMutability": "view",
      "type": "function"
    },
    {
      "constant": true,
      "inputs": [],
      "name": "FileName",
      "outputs": [
        {
          "name": "",
          "type": "string"
        }
      ],
      "payable": false,
      "stateMutability": "view",
      "type": "function"
    },
    {
      "constant": true,
      "inputs": [],
      "name": "State",
      "outputs": [
        {
          "name": "",
          "type": "uint8"
        }
      ],
      "payable": false,
      "stateMutability": "view",
      "type": "function"
    },
    {
      "inputs": [
        {
          "name": "registryAddress",
          "type": "address"
        },
        {
          "name": "fileId",
          "type": "string"
        },
        {
          "name": "fileHash",
          "type": "string"
        },
        {
          "name": "metadataHash",
          "type": "string"
        }
      ],
      "payable": false,
      "stateMutability": "nonpayable",
      "type": "constructor"
    },
    {
      "constant": false,
      "inputs": [],
      "name": "Invalidate",
      "outputs": [],
      "payable": false,
      "stateMutability": "nonpayable",
      "type": "function"
    },
    {
      "constant": true,
      "inputs": [],
      "name": "Update",
      "outputs": [],
      "payable": false,
      "stateMutability": "pure",
      "type": "function"
    },
    {
      "constant": true,
      "inputs": [],
      "name": "IsValid",
      "outputs": [
        {
          "name": "",
          "type": "bool"
        }
      ],
      "payable": false,
      "stateMutability": "view",
      "type": "function"
    },
    {
      "constant": false,
      "inputs": [],
      "name": "Verify",
      "outputs": [],
      "payable": false,
      "stateMutability": "nonpayable",
      "type": "function"
    },
    {
      "constant": true,
      "inputs": [],
      "name": "GetFileHash",
      "outputs": [
        {
          "name": "",
          "type": "string"
        }
      ],
      "payable": false,
      "stateMutability": "view",
      "type": "function"
    },
    {
      "constant": true,
      "inputs": [],
      "name": "GetMetadataHash",
      "outputs": [
        {
          "name": "",
          "type": "string"
        }
      ],
      "payable": false,
      "stateMutability": "view",
      "type": "function"
    },
    {
      "constant": true,
      "inputs": [],
      "name": "IsChanged",
      "outputs": [
        {
          "name": "",
          "type": "bool"
        }
      ],
      "payable": false,
      "stateMutability": "view",
      "type": "function"
    },
    {
      "constant": true,
      "inputs": [],
      "name": "IsNotChanged",
      "outputs": [
        {
          "name": "",
          "type": "bool"
        }
      ],
      "payable": false,
      "stateMutability": "view",
      "type": "function"
    },
    {
      "constant": true,
      "inputs": [],
      "name": "GetAddress",
      "outputs": [
        {
          "name": "",
          "type": "address"
        }
      ],
      "payable": false,
      "stateMutability": "view",
      "type": "function"
    }
  ],
  "bytecode": "0x60806040523480156200001157600080fd5b5060405162002d0e38038062002d0e833981018060405281019080805190602001909291908051820192919060200180518201929190602001805182019291905050506000806000806101000a81548160ff021916908360038111156200007457fe5b021790555082600490805190602001906200009192919062001356565b508160059080519060200190620000aa92919062001356565b508490508073ffffffffffffffffffffffffffffffffffffffff166313027c96856040518263ffffffff167c01000000000000000000000000000000000000000000000000000000000281526004018080602001828103825283818151815260200191508051906020019080838360005b83811015620001385780820151818401526020810190506200011b565b50505050905090810190601f168015620001665780820380516001836020036101000a031916815260200191505b5092505050602060405180830381600087803b1580156200018657600080fd5b505af11580156200019b573d6000803e3d6000fd5b505050506040513d6020811015620001b257600080fd5b8101908080519060200190929190505050600760006101000a81548173ffffffffffffffffffffffffffffffffffffffff021916908373ffffffffffffffffffffffffffffffffffffffff160217905550600760009054906101000a900473ffffffffffffffffffffffffffffffffffffffff16600660006101000a81548173ffffffffffffffffffffffffffffffffffffffff021916908373ffffffffffffffffffffffffffffffffffffffff160217905550600660009054906101000a900473ffffffffffffffffffffffffffffffffffffffff1673ffffffffffffffffffffffffffffffffffffffff1663bf65d4926040518163ffffffff167c0100000000000000000000000000000000000000000000000000000000028152600401600060405180830381600087803b158015620002ed57600080fd5b505af115801562000302573d6000803e3d6000fd5b505050506040513d6000823e3d601f19601f8201168201806040525060208110156200032d57600080fd5b8101908080516401000000008111156200034657600080fd5b828101905060208101848111156200035d57600080fd5b81518560018202830111640100000000821117156200037b57600080fd5b5050929190505050600190805190602001906200039a92919062001356565b50600660009054906101000a900473ffffffffffffffffffffffffffffffffffffffff1673ffffffffffffffffffffffffffffffffffffffff16638e6b6c20306040518263ffffffff167c0100000000000000000000000000000000000000000000000000000000028152600401808273ffffffffffffffffffffffffffffffffffffffff1673ffffffffffffffffffffffffffffffffffffffff168152602001915050600060405180830381600087803b1580156200045957600080fd5b505af11580156200046e573d6000803e3d6000fd5b505050506040513d6000823e3d601f19601f8201168201806040525060208110156200049957600080fd5b810190808051640100000000811115620004b257600080fd5b82810190506020810184811115620004c957600080fd5b8151856001820283011164010000000082111715620004e757600080fd5b5050929190505050600290805190602001906200050692919062001356565b506001600660009054906101000a900473ffffffffffffffffffffffffffffffffffffffff1673ffffffffffffffffffffffffffffffffffffffff1663d00e6ffd6040518163ffffffff167c0100000000000000000000000000000000000000000000000000000000028152600401602060405180830381600087803b1580156200059057600080fd5b505af1158015620005a5573d6000803e3d6000fd5b505050506040513d6020811015620005bc57600080fd5b81019080805190602001909291905050500360038190555060006003541415620005ff57620005f962000624640100000000026401000000009004565b62000619565b6200061862000a58640100000000026401000000009004565b5b505050505062001405565b620007f960058054600181600116156101000203166002900480601f016020809104026020016040519081016040528092919081815260200182805460018160011615610100020316600290048015620006c25780601f106200069657610100808354040283529160200191620006c2565b820191906000526020600020905b815481529060010190602001808311620006a457829003601f168201915b5050505050600660009054906101000a900473ffffffffffffffffffffffffffffffffffffffff1673ffffffffffffffffffffffffffffffffffffffff16630cac2c6e6040518163ffffffff167c0100000000000000000000000000000000000000000000000000000000028152600401600060405180830381600087803b1580156200074e57600080fd5b505af115801562000763573d6000803e3d6000fd5b505050506040513d6000823e3d601f19601f8201168201806040525060208110156200078e57600080fd5b810190808051640100000000811115620007a757600080fd5b82810190506020810184811115620007be57600080fd5b8151856001820283011164010000000082111715620007dc57600080fd5b505092919050505062001279640100000000026401000000009004565b15156200082a5760016000806101000a81548160ff021916908360038111156200081f57fe5b021790555062000a56565b620009ff60048054600181600116156101000203166002900480601f016020809104026020016040519081016040528092919081815260200182805460018160011615610100020316600290048015620008c85780601f106200089c57610100808354040283529160200191620008c8565b820191906000526020600020905b815481529060010190602001808311620008aa57829003601f168201915b5050505050600660009054906101000a900473ffffffffffffffffffffffffffffffffffffffff1673ffffffffffffffffffffffffffffffffffffffff1663dc6a65b96040518163ffffffff167c0100000000000000000000000000000000000000000000000000000000028152600401600060405180830381600087803b1580156200095457600080fd5b505af115801562000969573d6000803e3d6000fd5b505050506040513d6000823e3d601f19601f8201168201806040525060208110156200099457600080fd5b810190808051640100000000811115620009ad57600080fd5b82810190506020810184811115620009c457600080fd5b8151856001820283011164010000000082111715620009e257600080fd5b505092919050505062001279640100000000026401000000009004565b151562000a305760016000806101000a81548160ff0219169083600381111562000a2557fe5b021790555062000a55565b60026000806101000a81548160ff0219169083600381111562000a4f57fe5b02179055505b5b565b600060038081111562000a6757fe5b6000809054906101000a900460ff16600381111562000a8257fe5b1415151562000b1f576040517f08c379a00000000000000000000000000000000000000000000000000000000081526004018080602001828103825260368152602001807f417474656d7074656420746f207665726966792061207265636569707420746881526020017f61742773206265656e20696e76616c6964617465642e0000000000000000000081525060400191505060405180910390fd5b600090505b6003548110801562000ca75750600660009054906101000a900473ffffffffffffffffffffffffffffffffffffffff1673ffffffffffffffffffffffffffffffffffffffff1663cb3805eb82600354036040518263ffffffff167c010000000000000000000000000000000000000000000000000000000002815260040180828152602001915050602060405180830381600087803b15801562000bc757600080fd5b505af115801562000bdc573d6000803e3d6000fd5b505050506040513d602081101562000bf357600080fd5b810190808051906020019092919050505073ffffffffffffffffffffffffffffffffffffffff16634f829d306040518163ffffffff167c0100000000000000000000000000000000000000000000000000000000028152600401602060405180830381600087803b15801562000c6857600080fd5b505af115801562000c7d573d6000803e3d6000fd5b505050506040513d602081101562000c9457600080fd5b8101908080519060200190929190505050155b1562000cb95780600101905062000b24565b60035481141562000ce35762000cdd62000624640100000000026401000000009004565b62001276565b62000f6860058054600181600116156101000203166002900480601f01602080910402602001604051908101604052809291908181526020018280546001816001161561010002031660029004801562000d815780601f1062000d555761010080835404028352916020019162000d81565b820191906000526020600020905b81548152906001019060200180831162000d6357829003601f168201915b5050505050600660009054906101000a900473ffffffffffffffffffffffffffffffffffffffff1673ffffffffffffffffffffffffffffffffffffffff1663cb3805eb84600354036040518263ffffffff167c010000000000000000000000000000000000000000000000000000000002815260040180828152602001915050602060405180830381600087803b15801562000e1c57600080fd5b505af115801562000e31573d6000803e3d6000fd5b505050506040513d602081101562000e4857600080fd5b810190808051906020019092919050505073ffffffffffffffffffffffffffffffffffffffff16630cac2c6e6040518163ffffffff167c0100000000000000000000000000000000000000000000000000000000028152600401600060405180830381600087803b15801562000ebd57600080fd5b505af115801562000ed2573d6000803e3d6000fd5b505050506040513d6000823e3d601f19601f82011682018060405250602081101562000efd57600080fd5b81019080805164010000000081111562000f1657600080fd5b8281019050602081018481111562000f2d57600080fd5b815185600182028301116401000000008211171562000f4b57600080fd5b505092919050505062001279640100000000026401000000009004565b151562000f995760016000806101000a81548160ff0219169083600381111562000f8e57fe5b021790555062001275565b6200121e60048054600181600116156101000203166002900480601f016020809104026020016040519081016040528092919081815260200182805460018160011615610100020316600290048015620010375780601f106200100b5761010080835404028352916020019162001037565b820191906000526020600020905b8154815290600101906020018083116200101957829003601f168201915b5050505050600660009054906101000a900473ffffffffffffffffffffffffffffffffffffffff1673ffffffffffffffffffffffffffffffffffffffff1663cb3805eb84600354036040518263ffffffff167c010000000000000000000000000000000000000000000000000000000002815260040180828152602001915050602060405180830381600087803b158015620010d257600080fd5b505af1158015620010e7573d6000803e3d6000fd5b505050506040513d6020811015620010fe57600080fd5b810190808051906020019092919050505073ffffffffffffffffffffffffffffffffffffffff1663dc6a65b96040518163ffffffff167c0100000000000000000000000000000000000000000000000000000000028152600401600060405180830381600087803b1580156200117357600080fd5b505af115801562001188573d6000803e3d6000fd5b505050506040513d6000823e3d601f19601f820116820180604052506020811015620011b357600080fd5b810190808051640100000000811115620011cc57600080fd5b82810190506020810184811115620011e357600080fd5b81518560018202830111640100000000821117156200120157600080fd5b505092919050505062001279640100000000026401000000009004565b15156200124f5760016000806101000a81548160ff021916908360038111156200124457fe5b021790555062001274565b60026000806101000a81548160ff021916908360038111156200126e57fe5b02179055505b5b5b50565b6000816040518082805190602001908083835b602083101515620012b357805182526020820191506020810190506020830392506200128c565b6001836020036101000a038019825116818451168082178552505050505050905001915050604051809103902060001916836040518082805190602001908083835b6020831015156200131c5780518252602082019150602081019050602083039250620012f5565b6001836020036101000a03801982511681845116808217855250505050505090500191505060405180910390206000191614905092915050565b828054600181600116156101000203166002900490600052602060002090601f016020900481019282601f106200139957805160ff1916838001178555620013ca565b82800160010185558215620013ca579182015b82811115620013c9578251825591602001919060010190620013ac565b5b509050620013d99190620013dd565b5090565b6200140291905b80821115620013fe576000816000905550600101620013e4565b5090565b90565b6118f980620014156000396000f3006080604052600436106100ba576000357c0100000000000000000000000000000000000000000000000000000000900463ffffffff1680630cac2c6e146100bf578063143087ee1461014f5780631e337318146101665780634f829d30146101f6578063563d3fd81461022557806398d244121461023c578063af4b7f141461026b578063bf65d49214610282578063dc6a65b914610312578063f1095222146103a2578063f1b6dccd146103f9578063ff7c948014610432575b600080fd5b3480156100cb57600080fd5b506100d4610461565b6040518080602001828103825283818151815260200191508051906020019080838360005b838110156101145780820151818401526020810190506100f9565b50505050905090810190601f1680156101415780820380516001836020036101000a031916815260200191505b509250505060405180910390f35b34801561015b57600080fd5b50610164610503565b005b34801561017257600080fd5b5061017b610cc2565b6040518080602001828103825283818151815260200191508051906020019080838360005b838110156101bb5780820151818401526020810190506101a0565b50505050905090810190601f1680156101e85780820380516001836020036101000a031916815260200191505b509250505060405180910390f35b34801561020257600080fd5b5061020b610d60565b604051808215151515815260200191505060405180910390f35b34801561023157600080fd5b5061023a610d8f565b005b34801561024857600080fd5b50610251610fe8565b604051808215151515815260200191505060405180910390f35b34801561027757600080fd5b50610280611017565b005b34801561028e57600080fd5b50610297611019565b6040518080602001828103825283818151815260200191508051906020019080838360005b838110156102d75780820151818401526020810190506102bc565b50505050905090810190601f1680156103045780820380516001836020036101000a031916815260200191505b509250505060405180910390f35b34801561031e57600080fd5b506103276110b7565b6040518080602001828103825283818151815260200191508051906020019080838360005b8381101561036757808201518184015260208101905061034c565b50505050905090810190601f1680156103945780820380516001836020036101000a031916815260200191505b509250505060405180910390f35b3480156103ae57600080fd5b506103b7611159565b604051808273ffffffffffffffffffffffffffffffffffffffff1673ffffffffffffffffffffffffffffffffffffffff16815260200191505060405180910390f35b34801561040557600080fd5b5061040e611161565b6040518082600381111561041e57fe5b60ff16815260200191505060405180910390f35b34801561043e57600080fd5b50610447611173565b604051808215151515815260200191505060405180910390f35b606060058054600181600116156101000203166002900480601f0160208091040260200160405190810160405280929190818152602001828054600181600116156101000203166002900480156104f95780601f106104ce576101008083540402835291602001916104f9565b820191906000526020600020905b8154815290600101906020018083116104dc57829003601f168201915b5050505050905090565b600060038081111561051157fe5b6000809054906101000a900460ff16600381111561052b57fe5b141515156105c7576040517f08c379a00000000000000000000000000000000000000000000000000000000081526004018080602001828103825260368152602001807f417474656d7074656420746f207665726966792061207265636569707420746881526020017f61742773206265656e20696e76616c6964617465642e0000000000000000000081525060400191505060405180910390fd5b600090505b600354811080156107485750600660009054906101000a900473ffffffffffffffffffffffffffffffffffffffff1673ffffffffffffffffffffffffffffffffffffffff1663cb3805eb82600354036040518263ffffffff167c010000000000000000000000000000000000000000000000000000000002815260040180828152602001915050602060405180830381600087803b15801561066d57600080fd5b505af1158015610681573d6000803e3d6000fd5b505050506040513d602081101561069757600080fd5b810190808051906020019092919050505073ffffffffffffffffffffffffffffffffffffffff16634f829d306040518163ffffffff167c0100000000000000000000000000000000000000000000000000000000028152600401602060405180830381600087803b15801561070b57600080fd5b505af115801561071f573d6000803e3d6000fd5b505050506040513d602081101561073557600080fd5b8101908080519060200190929190505050155b15610758578060010190506105cc565b60035481141561076f5761076a6111a2565b610cbf565b6109d660058054600181600116156101000203166002900480601f0160208091040260200160405190810160405280929190818152602001828054600181600116156101000203166002900480156108085780601f106107dd57610100808354040283529160200191610808565b820191906000526020600020905b8154815290600101906020018083116107eb57829003601f168201915b5050505050600660009054906101000a900473ffffffffffffffffffffffffffffffffffffffff1673ffffffffffffffffffffffffffffffffffffffff1663cb3805eb84600354036040518263ffffffff167c010000000000000000000000000000000000000000000000000000000002815260040180828152602001915050602060405180830381600087803b1580156108a257600080fd5b505af11580156108b6573d6000803e3d6000fd5b505050506040513d60208110156108cc57600080fd5b810190808051906020019092919050505073ffffffffffffffffffffffffffffffffffffffff16630cac2c6e6040518163ffffffff167c0100000000000000000000000000000000000000000000000000000000028152600401600060405180830381600087803b15801561094057600080fd5b505af1158015610954573d6000803e3d6000fd5b505050506040513d6000823e3d601f19601f82011682018060405250602081101561097e57600080fd5b81019080805164010000000081111561099657600080fd5b828101905060208101848111156109ac57600080fd5b81518560018202830111640100000000821117156109c957600080fd5b5050929190505050611599565b1515610a045760016000806101000a81548160ff021916908360038111156109fa57fe5b0217905550610cbe565b610c6b60048054600181600116156101000203166002900480601f016020809104026020016040519081016040528092919081815260200182805460018160011615610100020316600290048015610a9d5780601f10610a7257610100808354040283529160200191610a9d565b820191906000526020600020905b815481529060010190602001808311610a8057829003601f168201915b5050505050600660009054906101000a900473ffffffffffffffffffffffffffffffffffffffff1673ffffffffffffffffffffffffffffffffffffffff1663cb3805eb84600354036040518263ffffffff167c010000000000000000000000000000000000000000000000000000000002815260040180828152602001915050602060405180830381600087803b158015610b3757600080fd5b505af1158015610b4b573d6000803e3d6000fd5b505050506040513d6020811015610b6157600080fd5b810190808051906020019092919050505073ffffffffffffffffffffffffffffffffffffffff1663dc6a65b96040518163ffffffff167c0100000000000000000000000000000000000000000000000000000000028152600401600060405180830381600087803b158015610bd557600080fd5b505af1158015610be9573d6000803e3d6000fd5b505050506040513d6000823e3d601f19601f820116820180604052506020811015610c1357600080fd5b810190808051640100000000811115610c2b57600080fd5b82810190506020810184811115610c4157600080fd5b8151856001820283011164010000000082111715610c5e57600080fd5b5050929190505050611599565b1515610c995760016000806101000a81548160ff02191690836003811115610c8f57fe5b0217905550610cbd565b60026000806101000a81548160ff02191690836003811115610cb757fe5b02179055505b5b5b50565b60028054600181600116156101000203166002900480601f016020809104026020016040519081016040528092919081815260200182805460018160011615610100020316600290048015610d585780601f10610d2d57610100808354040283529160200191610d58565b820191906000526020600020905b815481529060010190602001808311610d3b57829003601f168201915b505050505081565b6000600380811115610d6e57fe5b6000809054906101000a900460ff166003811115610d8857fe5b1415905090565b60036000806101000a81548160ff02191690836003811115610dad57fe5b02179055506001600660009054906101000a900473ffffffffffffffffffffffffffffffffffffffff1673ffffffffffffffffffffffffffffffffffffffff1663d00e6ffd6040518163ffffffff167c0100000000000000000000000000000000000000000000000000000000028152600401602060405180830381600087803b158015610e3a57600080fd5b505af1158015610e4e573d6000803e3d6000fd5b505050506040513d6020811015610e6457600080fd5b8101908080519060200190929190505050036003541015610fe657600354610e8d600354611672565b1115610fe557600660009054906101000a900473ffffffffffffffffffffffffffffffffffffffff1673ffffffffffffffffffffffffffffffffffffffff166311c5c1fb610edc600354611672565b6040518263ffffffff167c010000000000000000000000000000000000000000000000000000000002815260040180828152602001915050602060405180830381600087803b158015610f2e57600080fd5b505af1158015610f42573d6000803e3d6000fd5b505050506040513d6020811015610f5857600080fd5b810190808051906020019092919050505073ffffffffffffffffffffffffffffffffffffffff1663143087ee6040518163ffffffff167c0100000000000000000000000000000000000000000000000000000000028152600401600060405180830381600087803b158015610fcc57600080fd5b505af1158015610fe0573d6000803e3d6000fd5b505050505b5b565b600060016003811115610ff757fe5b6000809054906101000a900460ff16600381111561101157fe5b14905090565b565b60018054600181600116156101000203166002900480601f0160208091040260200160405190810160405280929190818152602001828054600181600116156101000203166002900480156110af5780601f10611084576101008083540402835291602001916110af565b820191906000526020600020905b81548152906001019060200180831161109257829003601f168201915b505050505081565b606060048054600181600116156101000203166002900480601f01602080910402602001604051908101604052809291908181526020018280546001816001161561010002031660029004801561114f5780601f106111245761010080835404028352916020019161114f565b820191906000526020600020905b81548152906001019060200180831161113257829003601f168201915b5050505050905090565b600030905090565b6000809054906101000a900460ff1681565b60006002600381111561118257fe5b6000809054906101000a900460ff16600381111561119c57fe5b14905090565b61135c60058054600181600116156101000203166002900480601f01602080910402602001604051908101604052809291908181526020018280546001816001161561010002031660029004801561123b5780601f106112105761010080835404028352916020019161123b565b820191906000526020600020905b81548152906001019060200180831161121e57829003601f168201915b5050505050600660009054906101000a900473ffffffffffffffffffffffffffffffffffffffff1673ffffffffffffffffffffffffffffffffffffffff16630cac2c6e6040518163ffffffff167c0100000000000000000000000000000000000000000000000000000000028152600401600060405180830381600087803b1580156112c657600080fd5b505af11580156112da573d6000803e3d6000fd5b505050506040513d6000823e3d601f19601f82011682018060405250602081101561130457600080fd5b81019080805164010000000081111561131c57600080fd5b8281019050602081018481111561133257600080fd5b815185600182028301116401000000008211171561134f57600080fd5b5050929190505050611599565b151561138a5760016000806101000a81548160ff0219169083600381111561138057fe5b0217905550611597565b61154460048054600181600116156101000203166002900480601f0160208091040260200160405190810160405280929190818152602001828054600181600116156101000203166002900480156114235780601f106113f857610100808354040283529160200191611423565b820191906000526020600020905b81548152906001019060200180831161140657829003601f168201915b5050505050600660009054906101000a900473ffffffffffffffffffffffffffffffffffffffff1673ffffffffffffffffffffffffffffffffffffffff1663dc6a65b96040518163ffffffff167c0100000000000000000000000000000000000000000000000000000000028152600401600060405180830381600087803b1580156114ae57600080fd5b505af11580156114c2573d6000803e3d6000fd5b505050506040513d6000823e3d601f19601f8201168201806040525060208110156114ec57600080fd5b81019080805164010000000081111561150457600080fd5b8281019050602081018481111561151a57600080fd5b815185600182028301116401000000008211171561153757600080fd5b5050929190505050611599565b15156115725760016000806101000a81548160ff0219169083600381111561156857fe5b0217905550611596565b60026000806101000a81548160ff0219169083600381111561159057fe5b02179055505b5b565b6000816040518082805190602001908083835b6020831015156115d157805182526020820191506020810190506020830392506115ac565b6001836020036101000a038019825116818451168082178552505050505050905001915050604051809103902060001916836040518082805190602001908083835b6020831015156116385780518252602082019150602081019050602083039250611613565b6001836020036101000a03801982511681845116808217855250505050505090500191505060405180910390206000191614905092915050565b6000808290505b600660009054906101000a900473ffffffffffffffffffffffffffffffffffffffff1673ffffffffffffffffffffffffffffffffffffffff1663d00e6ffd6040518163ffffffff167c0100000000000000000000000000000000000000000000000000000000028152600401602060405180830381600087803b1580156116ff57600080fd5b505af1158015611713573d6000803e3d6000fd5b505050506040513d602081101561172957600080fd5b81019080805190602001909291905050508110156118c357600660009054906101000a900473ffffffffffffffffffffffffffffffffffffffff1673ffffffffffffffffffffffffffffffffffffffff166311c5c1fb826040518263ffffffff167c010000000000000000000000000000000000000000000000000000000002815260040180828152602001915050602060405180830381600087803b1580156117d257600080fd5b505af11580156117e6573d6000803e3d6000fd5b505050506040513d60208110156117fc57600080fd5b810190808051906020019092919050505073ffffffffffffffffffffffffffffffffffffffff16634f829d306040518163ffffffff167c0100000000000000000000000000000000000000000000000000000000028152600401602060405180830381600087803b15801561187057600080fd5b505af1158015611884573d6000803e3d6000fd5b505050506040513d602081101561189a57600080fd5b8101908080519060200190929190505050156118b8578091506118c7565b806001019050611679565b8291505b509190505600a165627a7a7230582098395c711b7b393a1c9a846b76a992cd173848a64659709b25788393184e6e150029",
  "source": "\n// adapted from github.com/Azure-Samples/blockchain-devkit/blob/master/accelerators\n// adapted by Alexandria Pawlik, June 2019\n\n// version contains address-type parameters\n\n\npragma solidity ^0.4.24;\n\n// interface\nimport \"./interfaces/IReceipt.sol\";\n\n\n// VERIFICATION RECEIPT CONTRACT\n/////////////////////////////////////////////////////////////////\n\n\ncontract Receipt is IReceipt\n{\n  ///////////////// public data\n\n\n\tenum StateType { NotVerified, Changed, NotChanged, Invalid}\n\tStateType public State;\n\n\tstring public FileName; // name of the file that this receipt is for\n\tstring public VerificationDateTime; // MM/DD/YY HH:MM:SS\n\t\n\n  ///////////////// internal data\n\n\n  uint internal Index;  // index of receipt in file's history array\n  string internal FileHash; // sha256 hash of instant file content\n\tstring internal MetadataHash; // sha256 hash of instant file metadata\n\n  File internal MyFile;\n\taddress internal FileAddress;\n\n\n  /////////////////\n\n\n\tconstructor (address registryAddress, string fileId, string fileHash, string metadataHash)\n\tpublic\n\t{\n\t\t// for debugging, not permanent\n\t\tState = StateType.NotVerified;\n\n\t\t// verification data\n\t\tFileHash = fileHash;\n\t\tMetadataHash = metadataHash;\n\n    // registry\n\t\tFileRegistry MyFileRegistry = FileRegistry(registryAddress);\n\n    // find file id in this registry\n    FileAddress = MyFileRegistry.GetFileAddressGivenId(fileId);\n\n\t\t// file\n\t\tMyFile = File(FileAddress);\n\t\tFileName = MyFile.FileName();\n\n\t\t// add verification receipt to history, makes sure that file has not been deleted\n\t\tVerificationDateTime = MyFile.AddReceipt(address(this));\n    Index = MyFile.GetNumberOfReceipts() - 1;\n\n\t\t// if this is the first verification, verify with original\n\t\tif (Index == 0)\n\t\t{\n\t\t\tVerifyWithOriginal();\n\t\t}\n\t\t// else this is not the first verification, compare to the most recent valid verification\n\t\telse\n    {\n      Verify();\n    }\n\t}\n\n\n  ///////////////// accessible by blockchain users\n\n\n  function Invalidate()\n  external\n  {\n    State = StateType.Invalid;\n\n    // if this isn't the last receipt\n    if (Index < (MyFile.GetNumberOfReceipts() - 1)) \n    {\n\t\t\t// if there's a valid receipt after this one\n\t\t\tif (GetNextValidReceiptAfter(Index) > Index)\n\t\t\t{\n\t\t\t\tReceipt(MyFile.GetReceiptAddressAtIndex(GetNextValidReceiptAfter(Index))).Verify();\n\t\t\t}\n    }\n  }\n\n  // allows workbench users to refresh displayed data\n  function Update()\n  external \n\tpure {}\n\n\n  ///////////////// helper functions\n\n\n  function VerifyWithOriginal()\n  internal\n  {\n    // first check that metadata hashes (contenttype, etag, id) match\n    if ( !compareStrings(MetadataHash, MyFile.GetMetadataHash()) ) \n    {\n      State = StateType.Changed;\n    }\n    // then check that content hashes match\n    else if ( !compareStrings(FileHash, MyFile.GetFileHash()) )\n    {\n      State = StateType.Changed;\n    }\n    // unchanged\n    else\n    {\n      State = StateType.NotChanged;\n    }\n  }\n\n\tfunction stringToAddress(string _a) \n  internal \n  pure \n  returns(address)\n  {\n    bytes memory tmp = bytes(_a);\n    uint160 iaddr = 0;\n    uint160 b1;\n    uint160 b2;\n    \n    for (uint i=2; i<2+2*20; i+=2)\n    {\n      iaddr *= 256;\n      b1 = uint160(tmp[i]);\n      b2 = uint160(tmp[i+1]);\n      if ((b1 >= 97)&&(b1 <= 102)) b1 -= 87;\n      else if ((b1 >= 48)&&(b1 <= 57)) b1 -= 48;\n      if ((b2 >= 97)&&(b2 <= 102)) b2 -= 87;\n      else if ((b2 >= 48)&&(b2 <= 57)) b2 -= 48;\n      iaddr += (b1*16+b2);\n    }\n\n    return address(iaddr);\n  }\n\n\tfunction stringToBytes32(string memory source) \n  internal \n  pure \n  returns(bytes32 result) \n  {\n    bytes memory tempEmptyStringTest = bytes(source);\n    if (tempEmptyStringTest.length == 0) \n    {\n      return 0x0;\n    }\n\n    assembly \n    {\n      result := mload(add(source, 32))\n    }\n  }\n\n\tfunction compareStrings(string a, string b) \n  internal \n  pure \n  returns(bool)\n  {\n    return keccak256(bytes(a)) == keccak256(bytes(b));\n  }\n\n\t// assumes that receipt at idx isn't the last receipt\n\t// returns the index of the next valid receipt in the array (idx increasing)\n\t// returns idx if all the following receipts are invalid\n\tfunction GetNextValidReceiptAfter(uint idx)\n\tinternal\n\tview\n\treturns (uint)\n\t{\n\t\tfor (uint i = idx; i < MyFile.GetNumberOfReceipts(); ++i)\n\t\t{\n\t\t\tif (Receipt(MyFile.GetReceiptAddressAtIndex(i)).IsValid()) return i;\n\t\t}\n\t\t// returns idx if all the following receipts are invalid\n\t\treturn idx;\n\t}\n\n\n  ///////////////// called by other receipts\n\n\n  function IsValid()\n  public\n  view\n  returns (bool)\n  {\n    return (State != StateType.Invalid);\n  }\n\n  // determine if file matches its last verification and set state\n\tfunction Verify()\n\tpublic\n\t{\n\t\trequire(State != StateType.Invalid, \"Attempted to verify a receipt that's been invalidated.\");\n\n    // find most recent valid verification\n    uint backcount = 0;\n    while ( \n\t\t\t(backcount < Index) &&\n      !Receipt(MyFile.GetReceiptAddressBefore(Index - backcount)).IsValid() )\n    {\n      ++backcount;\n    }\n\n    // if backcount reached its limit, compare back to original\n    if (backcount == Index)\n    {\n      VerifyWithOriginal();\n    }\n    else \n    {\n      // first check that metadata hashes (contenttype, etag, id) match\n      if ( !compareStrings(MetadataHash,\n        Receipt(MyFile.GetReceiptAddressBefore(Index - backcount)).GetMetadataHash()) ) \n      {\n        State = StateType.Changed;\n      } \n      // then check that content hashes match\n      else if ( !compareStrings(FileHash,\n        Receipt(MyFile.GetReceiptAddressBefore(Index - backcount)).GetFileHash()) ) \n      {\n        State = StateType.Changed;\n      }\n      // unchanged\n      else\n      {\n        State = StateType.NotChanged;\n      }\n    }    \n\t}\n\n\t// get function for internal variable\n\tfunction GetFileHash()\n\texternal\n\tview\n\treturns (string)\n\t{\n\t\treturn FileHash;\n\t}\n\n\t// get function for internal variable\n\tfunction GetMetadataHash()\n\texternal\n\tview\n\treturns (string)\n\t{\n\t\treturn MetadataHash;\n\t}\n\n\n\t///////////////// get functions for testing\n\t\n\n\tfunction IsChanged()\n\texternal\n\tview\n\treturns (bool)\n\t{\n\t\treturn (State == StateType.Changed);\n\t}\n\n\tfunction IsNotChanged()\n\texternal\n\tview\n\treturns (bool)\n\t{\n\t\treturn (State == StateType.NotChanged);\n\t}\n\n\tfunction GetAddress()\n\texternal\n\tview\n\treturns (address)\n\t{\n\t\treturn address(this);\n\t}\n}",
  "sourcePath": "/Users/alexandriapawlik/Documents/Dev/AFGroup/fileVerificationContracts/contracts/Receipt.sol",
  "compiler": {
    "name": "solc",
    "version": "0.4.24+commit.e67f0147.Emscripten.clang"
  },
  "schemaVersion": "3.0.10",
  "updatedAt": "2019-06-20T13:10:53.219Z",
  "devdoc": {
    "methods": {}
  },
  "userdoc": {
    "methods": {
      "Invalidate()": {
        "notice": "////////////// accessible by blockchain users"
      },
      "IsChanged()": {
        "notice": "////////////// get functions for testing"
      },
      "IsValid()": {
        "notice": "////////////// called by other receipts"
      }
    }
  }
}